:0600000002006B02135721
:03000B00021B22B3
:030013000213AA2B
:01001B0032B2
:030023000212BF07
:03002B0002239815
:01003300329A
:03003B000213FDB0
:0300430002128026
:01004B003282
:0300530002130B8A
:01005B003272
:03006300022396DF
:0300660002145130
:02006900E4733E
:0D006B0075813F122BC2E582600302006622
:100078007958E94400601B7A01902D1A782975A0F7
:1000880003E493F2A308B8000205A0D9F4DAF275E4
:02009800A0FFC7
:06009A00E478FFF6D8FD3A
:1000A0007800E84400600A799475A000E4F309D868
:1000B000FC7895E84402600C7903900094E4F0A386
:0400C000D8FCD9FA95
:1000C4009002877401F0900288E4F0A3F090029407
:0C00D400E4F0900295F0A3F0A3F0A3F07C
:0E00E0007808E4F608F608F608F6780C7600C4
:0200EE00C2034B
:0200F000C20547
:0200F200C20644
:0300F400020066A1
:1000F8009003677401F02275820B121A2D12295889
:10010800AC82AD83AEF0FFC004C005C006C0079046
:10011800A00075F08C74411211DDAC82AD83AEF095
:10012800FFE58124FCF5818C828D838EF0EF22908F
:100138000281E4F0A3F0A3F0A3F01200FFAC82ADBB
:1001480083AEF0FF90027DECF0EDA3F0EEA3F0EFAC
:10015800A3F0900279ECF0EDA3F0EEA3F0EFA3F09A
:1001680075100074F62510500302024C1200FFAB04
:1001780082AC83ADF0FE900279E0F8A3E0F9A3E049
:10018800FAA3E0FFC006C005C004C003C003C00452
:10019800C005C006888289838AF0EF1222C8AF8220
:1001A800E58124FCF581D003D004D005D006EF60AA
:1001B8000E900279EBF0ECA3F0EDA3F0EEA3F0C003
:1001C80006C005C004C00390027DE0C0E0A3E0C003
:1001D800E0A3E0C0E0A3E0C0E08B828C838DF0EE6A
:1001E8001222C8AA82E58124FCF581D003D004D06C
:1001F80005D006EA600E90027DEBF0ECA3F0EDA3CB
:10020800F0EEA3F0900281E0F8A3E0F9A3E0FAA3EE
:10021800E0FFC003C004C005C006888289838AF055
:10022800EF12239AAC82AD83AEF0FFE58124FCF592
:1002380081900281ECF0EDA3F0EEA3F0EFA3F005BE
:100248001002016B900279E0FCA3E0FDA3E0FEA39D
:10025800E0FF90027DE0C0E0A3E0C0E0A3E0C0E0E2
:10026800A3E0C0E08C828D838EF0EF12239AAC82DB
:10027800AD83AEF0FFE58124FCF581900281E0F8C2
:10028800A3E0F9A3E0FAA3E0FBC004C005C006C0E0
:1002980007888289838AF0EB12115AAC82AD83AE4B
:1002A800F0FFE58124FCF581900281ECF0EDA3F0EC
:1002B800EEA3F0EFA3F0900281E0FCA3E0FDA3E041
:1002C800FEA3E0FFE4C0E0C0E0C0E07441C0E08C01
:1002D800828D838EF0EF122879AC82AD83AEF0FF69
:1002E800E58124FCF5818C828D838EF0EF2212014A
:1002F80037AC82AD83AEF0FF7414C0E074AEC0E0DA
:100308007487C0E0743FC0E08C828D838EF0EF125A
:1003180011DDAC82AD83AEF0FFE58124FCF5818C64
:10032800828D838EF0EF227F00BF78005035EF7505
:10033800F004A42494FD740035F0FEC007C006C084
:10034800051202F6A982AA83ABF0FCD005D006D02C
:10035800078D828E83E9F0EAA3F0EBA3F0ECA3F01B
:100368000F80C622AF83E582900285F0EFA3F0905C
:10037800028AE4F0A3F0A3F0A3F0900285E0FEA3C4
:10038800E0FFBE0410BF000D9002877401F09000DA
:1003980000E4F5F022900287E0600E12032F90022D
:1003A80088E4F0A3F0900287F0900288E0FEA3E0D2
:1003B800FFEE2EFEEF33FFEE2EFEEF33FFEE24941A
:1003C800FEEF3400FFC007C0061202F6AA82AB8314
:1003D800ACF0FDD006D0078E828F83EAF0EBA3F055
:1003E800ECA3F0EDA3F0900288E0FEA3E0FF0EBEC0
:1003F80000010F7478C0E0E4C0E08E828F83122978
:1004080063AE82AF8315811581900288EEF0EFA369
:10041800F07F00BF78005060EF75F004A42494F5D5
:1004280082740035F0F583E0F511A3E0F512A3E03E
:10043800F513A3E0F51490028AE0F8A3E0F9A3E02D
:10044800FAA3E0FEC007C011C012C013C01488820E
:1004580089838AF0EE12239AAB82AC83ADF0FEE575
:100468008124FCF581D00790028AEBF0ECA3F0ED33
:10047800A3F0EEA3F00F809B90028AE0FCA3E0FDBE
:10048800A3E0FEA3E0FFE4C0E0C0E074F0C0E074C5
:1004980042C0E08C828D838EF0EF122879AC82AD59
:1004A80083AEF0FFE58124FCF5818C828D838EF08C
:1004B800EF2275820F121603AF8290032FEF24FFED
:1004C800E433F075820E121603E58224FFE433FF4D
:1004D800900330F0EF705C121BA2AC82AD83AEF0DB
:1004E800FF742C2CFC74013DFDE43EFEE43FFFC08C
:1004F80007C006C005C004121BA2A882A983AAF0DF
:10050800FBD004D005D006D007C3E89CE99DEA9E3D
:10051800EB9F501F75820FC007C006C005C00412AC
:100528001603E582D004D005D006D00770C1900329
:100538002FE4F090032FE0FFE0600A900330E060C2
:100548000490000122EF700A900330E060049000EC
:10055800022290032FE0600A900330E070049000BC
:10056800032290000422AF83E582900292F0EFA369
:10057800F0900295E0F5F0A3E042F0A3E042F0A38A
:10058800E045F0701C90028EE0FCA3E0FDA3E0FEC5
:10059800A3E0FF900295ECF0EDA3F0EEA3F0EFA33B
:1005A800F0900294E0B40100E433F0900292E0FE8F
:1005B800A3E0FFBE0105BF00028010BE0205BF0018
:1005C800028043BE0377BF0074803B900295E0FC35
:1005D800A3E0FDA3E0FEA3E0FF90028EE0F8A3E015
:1005E800F9A3E0FAA3E0FBC3E89CE99DEA9EEB9F30
:1005F8004003020696900295E8F0E9A3F0EAA3F01A
:10060800EBA3F0020696900295E0FCA3E0FDA3E0C0
:10061800FEA3E0FF90028EE0F8A3E0F9A3E0FAA3BE
:10062800E0FBC3EC98ED99EE9AEF9B506190029530
:10063800E8F0E9A3F0EAA3F0EBA3F080519002956B
:10064800E4F0A3F0A3F0A3F0900294E09002A6F0E7
:1006580075821E121653900294E09002A6F07582DD
:10066800101216539002A6E4F075821F12165390CA
:1006780002A6E4F07582111216539003317401F04A
:10068800900334F0900332E4F0900333F0229002A8
:1006980095E0FCA3E0FDA3E0FEA3E0FFC3743C9C4F
:1006A800740F9DE49EE49FE433FB900334F09003C1
:1006B80033C374A69C740E9DE49EE49FE433F090CB
:1006C8000332C374429C740E9DE49EE49FE433F0AD
:1006D800900331C374DE9C740D9DE49EE49FE43363
:1006E800F09002A6EBF075821E121653900333E0C9
:1006F8009002A6F075821F121653900332E0900202
:10070800A6F0758211121653900331E09002A6F0FC
:10071800758210121653900292E0FEA3E0FFBE010C
:1007280005BF0002800122900295E0FCA3E0FDA332
:10073800E0FEA3E0FFC3743C9C740F9DE49EE49F1D
:10074800500E900294E09002A6F075821E02165395
:10075800C374A69C740E9DE49EE49F500E90029470
:10076800E09002A6F075821F021653C374429C746F
:100778000E9DE49EE49F500E900294E09002A6F035
:10078800758211021653C374DE9C740D9DE49EE4B9
:100798009F500E900294E09002A6F0758210021607
:1007A8005322E582900299F0758240122514900236
:1007B80099E0FFF582C007122514D007BF43030252
:1007C800088BBF4603020910BF4C028014BF5003B8
:1007D8000208F8BF56028058BF57030208BF020933
:1007E80019900334E0FF3395E0FEFD8F828E838DF0
:1007F800F0121493900333E0FF3395E0FEFD8F82EF
:100808008E838DF0121493900332E0FF3395E0FE4F
:10081800FD8F828E838DF0121493900331E0FF33A5
:1008280095E0FEFD8F828E838DF0121493020919D4
:10083800900335E0FEA3E0FFBE0405BF0002803749
:1008480090033FE0FCA3E0FDA3E0FEA3E0FFC3ECC0
:100858009410ED9427EE9400EF9400501AC374E7B7
:100868009C74039DE49EE49F500D8C828D838EF0D2
:10087800EF1214D3020919902BC675F080121513C4
:10088800020919758246122514900330E0FF33954A
:10089800E0FEFD8F828E838DF012149375824312D1
:1008A800251490032FE0FF3395E0FEFD8F828E83A1
:1008B8008DF0121493805A90035FE0FCA3E0FDA32F
:1008C800E0FEA3E0FF90035FE0F5F0A3E042F0A3B1
:1008D800E042F0A3E045F0600C8C828D838EF0EF4F
:1008E8001214D3802C902BC675F08012151380211A
:1008F800902BCB75F080121513900335E0FEA3E022
:10090800FF74404EF5FE8009902BD075F0801215CB
:1009180013758223122514902BD575F080021513B8
:1009280012261BE582700122900275E0900274F095
:10093800900276E0900275F0900277E0900276F0EF
:10094800122622AF82900277EFF0900274E0FFBF88
:100958004002800122900277E0FFBF23028001223B
:10096800900275E0FF900276E0FE24C69200402FC8
:10097800BE3000920040288E047D00EC24D0FCEDAF
:1009880034FFFDC007C006C004C0059003E812226A
:10099800F8AC82AD8315811581D006D00780047C20
:1009A800007D008C02EDFB3395E0FCFDC007C0061E
:1009B800C005C004C003C002121BA285821585832E
:1009C8001685F017F518D002D003D004D005D0064C
:1009D800D007BF4302806ABF4603020B1EBF4C020A
:1009E8008019BF4F03020AB8BF5003020AACBF56B2
:1009F80002802BBF5702806C020B1D900347EAF060
:100A0800EBA3F0ECA3F0EDA3F090034BE515F0E5B4
:100A180016A3F0E517A3F0E518A3F0020B1E900348
:100A28004FEAF0EBA3F0ECA3F0EDA3F0900353E54D
:100A380015F0E516A3F0E517A3F0E518A3F0020BEF
:100A48001E900357EAF0EBA3F0ECA3F0EDA3F090AF
:100A5800035BE515F0E516A3F0E517A3F0E518A389
:100A6800F0020B1EE5FE30E61890035FE4F0A3F0F9
:100A7800A3F0A3F0900363F0A3F0A3F0A3F0020B9C
:100A88001E90035FEAF0EBA3F0ECA3F0EDA3F09067
:100A98000363E515F0E516A3F0E517A3F0E518A341
:100AA800F0020B1E43FE40C007120B23D0078066DE
:100AB800BE3102800FBE3202801BBE33028027BEC9
:100AC8003446803390032B74DEF0740DA3F0E4A356
:100AD800F0A3F0804190032B7442F0740EA3F0E46D
:100AE800A3F0A3F0803090032B74A6F0740EA3F04B
:100AF800E4A3F0A3F0801F90032B743CF0740FA3C1
:100B0800F0E4A3F0A3F0800E90032BE4F0A3F0A38D
:100B1800F0A3F08001228F820207AA900347E4F035
:100B2800A3F0A3F0A3F090034BF0A3F0A3F0A3F07D
:100B380090034FF0A3F0A3F0A3F0900353F0A3F0B9
:100B4800A3F0A3F0900357F0A3F0A3F0A3F0900351
:100B58005BF0A3F0A3F0A3F090035FF0A3F0A3F081
:100B6800A3F0900363F0A3F0A3F0A3F0229003474F
:100B7800E0FCA3E0FDA3E0FEA3E0FF900347E0F55F
:100B8800F0A3E042F0A3E042F0A3E045F0606190FA
:100B9800034BE0F8A3E0F9A3E0FAA3E0FB90029A84
:100BA800EC28F0ED39A3F0EE3AA3F0EF3BA3F012F6
:100BB8001BA2AC82AD83AEF0FF90029AE0F8A3E0EE
:100BC800F9A3E0FAA3E0FBC3E89CE99DEA9EEB9F4A
:100BD800501E121BA2AC82AD83AEF0FF90034BEC0B
:100BE800F0EDA3F0EEA3F0EFA3F075824C1207AA84
:100BF80090034FE0FCA3E0FDA3E0FEA3E0FF900319
:100C08004FE0F5F0A3E042F0A3E042F0A3E045F0A6
:100C18006061900353E0F8A3E0F9A3E0FAA3E0FBD6
:100C280090029AEC28F0ED39A3F0EE3AA3F0EF3BEE
:100C3800A3F0121BA2AC82AD83AEF0FF90029AE043
:100C4800F8A3E0F9A3E0FAA3E0FBC3E89CE99DEA76
:100C58009EEB9F501E121BA2AC82AD83AEF0FF909C
:100C68000353ECF0EDA3F0EEA3F0EFA3F07582567A
:100C78001207AA900357E0FCA3E0FDA3E0FEA3E05F
:100C8800FF900357E0F5F0A3E042F0A3E042F0A3A1
:100C9800E045F0606190035BE0F8A3E0F9A3E0FAB7
:100CA800A3E0FB90029AEC28F0ED39A3F0EE3AA30A
:100CB800F0EF3BA3F0121BA2AC82AD83AEF0FF9025
:100CC800029AE0F8A3E0F9A3E0FAA3E0FBC3E89CEA
:100CD800E99DEA9EEB9F501E121BA2AC82AD83AE2B
:100CE800F0FF90035BECF0EDA3F0EEA3F0EFA3F0C0
:100CF8007582431207AA90035FE0FCA3E0FDA3E01E
:100D0800FEA3E0FF90035FE0F5F0A3E042F0A3E06C
:100D180042F0A3E045F06051900363E0F8A3E0F9E6
:100D2800A3E0FAA3E0FB90029AEC28F0ED39A3F0D7
:100D3800EE3AA3F0EF3BA3F0121BA2AC82AD83AE58
:100D4800F0FF90029AE0F8A3E0F9A3E0FAA3E0FB31
:100D5800C3E89CE99DEA9EEB9F500E90035FE4F088
:100D6800A3F0A3F0A3F0020D72229002A57401F083
:100D780075822112154C9002A6E4F0758221121694
:100D880053900064E4F5F0121BDF9002A67401F0A2
:100D9800758221121653900064E4F5F0121BDF905F
:100DA80002A6E4F07582211216539002A5E4F075AC
:100DB800822102154CE58290029EF0E0601B9002B1
:100DC800A5E4F075822212154C9002A5E4F0758214
:100DD8002112154C53FEBF80339002A57401F075A3
:100DE800822212154C9002A67401F0758222121606
:100DF800539002A57401F075822112154C9002A639
:100E08007401F075822112165343FE400224EB90C0
:100E180002A5E4F075820B12154C9002A57402F03D
:100E280075820F12154C9002A57402F075820E128D
:100E3800154C90032FE4F0900330F09002A5F07564
:100E4800822212154C9002A5E4F075822112154CED
:100E58009002A5E4F075822012154C900334E4F05A
:100E6800900333F0900332F0900331F09002A50420
:100E7800F075821E12154C900334E09002A6F075AE
:100E8800821E1216539002A57401F075821F121566
:100E98004C900333E09002A6F075821F121653900F
:100EA80002A57401F075821112154C900332E0907E
:100EB80002A6F07582111216539002A57401F075FE
:100EC800821012154C900331E09002A6F075821042
:100ED800021653120E171224EBE5FE701690032B20
:100EE800E4F0A3F0A3F0A3F0758200120DBD43FE59
:100EF80080800EE5FE20E606758201120DBD53FEC8
:100F08007F90029F74F8F07400A3F09002A174011E
:100F1800F07582001211667582001211AC120B2353
:100F280090000412036C1204BA12036C75A1557573
:100F3800A1AA43B10175FF002275FF00900337E0B5
:100F4800FCA3E0FDA3E0FEA3E0FF74F42CFC740115
:100F58003DFDE43EFEE43FFFC007C006C005C004F7
:100F6800121BA2A882A983AAF0FBD004D005D00640
:100F7800D007C3EC98ED99EE9AEF9B40030211302D
:100F8800121BA2AC82AD83AEF0FF900337ECF0EDFC
:100F9800A3F0EEA3F0EFA3F0120137121AE9AC8226
:100FA800AD83AEF0FF900343ECF0EDA3F0EEA3F0B9
:100FB800EFA3F01202F6121AE9AC82AD83AEF0FF8D
:100FC80090033BECF0EDA3F0EEA3F0EFA3F01204D6
:100FD800BAAE82AF83900335EEF0EFA3F08E828F26
:100FE8008312036C121AE9AC82AD83AEF0FF900352
:100FF8003FECF0EDA3F0EEA3F0EFA3F0900335E0A3
:10100800FAA3E0FB90028EECF0EDA3F0EEA3F0EF74
:10101800A3F08A828B8312056E120B75E5FE20E61B
:10102800030210FD743F55FEFF900335E0FDA3E079
:10103800FEBD0405BE000280677C00EFB50506EC26
:10104800B50602805BAFFE8D04EC4F4440F5FEBD53
:101058000105BE00028011BD0205BE00028006BD6A
:10106800033EBE003B43FE80E5FE30E73390033F7E
:10107800E0FCA3E0FDA3E0FEA3E0FF90032BE0F873
:10108800A3E0F9A3E0FAA3E0FBC3E89CE99DEA9E8C
:10109800EB9F500C53FE7F120B23758201120DBD7E
:1010A800900064E4F5F0121BDF9002A6E4F075826C
:1010B8001E1216539002A6E4F075821F1216539062
:1010C80002A6E4F07582111216539002A6E4F07598
:1010D8008210121653121BA2AC82AD83AEF0FF90A1
:1010E800033774D02CF074073DA3F0E43EA3F0E47A
:1010F8003FA3F0803390033FE0FCA3E0FDA3E0FEB4
:10110800A3E0FFC3EC9448ED940DEE9400EF940037
:101118005016900335E0FEA3E0FFBE0405BF0002B1
:101128008006758200120DBD900367E0601D900374
:1011380067E4F0121BA2AC82AD83AEF0FF900363AC
:10114800ECF0EDA3F0EEA3F0EFA3F01209280224CF
:01115800EBAB
:10115A00A8811818C6B2E7C602239A22AF82BF0234
:10116A0000503EEF75F002A42468FD740335F0FECA
:10117A0090029FE0FBA3E0FC8D828E83EBF0ECA350
:10118A00F0BF00028005BF0118800B9002A1E02485
:10119A00FF9288D2A8229002A1E0FF24FF928AD26D
:1011AA00AA22AF82BF02005028BF00028005BF01F9
:1011BA00088004C2A88002C2AAEF75F002A42468BB
:1011CA00FE740335F0FF8E828F837465F07411A369
:0211DA00F02201
:1011DD00121464BC0003022831EF60FA30D502B25C
:1011ED00D1E583B4FF03022847E582B4FF0302284B
:1011FD0047258340072482400B0228312483145055
:10120D0003022847F582EA8DF0A4A8F0EA8EF0A437
:10121D0028F8E435F0F9EB8DF0A428E935F0F9E480
:10122D0033CA8FF0A429F9EA35F0FAEBF88EF0A461
:10123D0029F9EA35F0FAE433FBEC8DF0A429F9EA4B
:10124D0035F0FAE43BFBE88FF0A42AFAEB35F0FB1E
:10125D00E433CCFD8EF0A42AFAEB35F0FBE43CFC34
:10126D00ED8FF0A42BFBEC35F0FC20E7031216C834
:03127D0002281034
:10128000C021C0E0C0F0C082C083C007C006C00556
:10129000C004C003C002C001C000C0D075D000129D
:1012A00021A1D0D0D000D001D002D003D004D005ED
:1012B000D006D007D083D082D0F0D0E0D02132C089
:1012C00021C0E0C0F0C082C083C007C006C005C016
:1012D00004C003C002C001C000C0D075D000309867
:1012E00005122A50C298309905122A90C299D0D07E
:1012F000D000D001D002D003D004D005D006D00752
:10130000D083D082D0F0D0E0D02132C021C0E0C064
:10131000F0C082C083C007C006C005C004C003C0BF
:1013200002C001C000C0D075D00030C005122AF143
:10133000C2C030C105122B31C2C1D0D0D000D00103
:10134000D002D003D004D005D006D007D083D082FD
:10135000D0F0D0E0D02132C021C0E0C0F0C082C0C7
:1013600083C007C006C005C004C003C002C001C0DE
:1013700000C0D075D000900368E0FEA3E0FFC00776
:10138000C0068E828F83120069D006D007D0D0D0DD
:1013900000D001D002D003D004D005D006D007D0B1
:1013A00083D082D0F0D0E0D02132C021C0E0C0F0A4
:1013B000C082C083C007C006C005C004C003C0020D
:1013C000C001C000C0D075D00090036AE0FEA3E069
:1013D000FFC007C0068E828F83120069D006D00737
:1013E000D0D0D000D001D002D003D004D005D00698
:1013F000D007D083D082D0F0D0E0D02132C021C03D
:10140000E0C0F0C082C083C007C006C005C004C0F1
:1014100003C002C001C000C0D075D00090036CE0D2
:10142000FEA3E04E600E90036CE0F8A3E0F5838825
:1014300082120069D0D0D000D001D002D003D004F5
:10144000D005D006D007D083D082D0F0D0E0D02114
:1014500032121CCB120EDB120F411224EB80F875F6
:03146000820022E5
:10146400AA82AB83A2F73392D1F5826002D2F7ACA1
:10147400F0E58124F9F8E6FD08E6FE0886F008E6C2
:0E148400A2F73392D5F5836002D2F7AFF022C3
:1014920022AC82AD83AEF0FF9002B2ECF0EDA3F08D
:1014A200EEA3F0EFA3F09025140217E8AC82AD830F
:1014B200AEF0FF9002A2E0FB9002DCECF0EDA3F0B4
:1014C200EEA3F0EFA3F09002E0EBF09025140219E6
:1014D20035AC82AD83AEF0FF9002AEECF0EDA3F03E
:1014E200EEA3F0EFA3F09025140217BBAC82AD83FC
:1014F200AEF0FF9002A3E0FB9002DCECF0EDA3F073
:10150200EEA3F0EFA3F09002E0EBF09025140219A5
:1015120035AD82AE83AFF09002ABEDF0EEA3F0EF0B
:10152200A3F0902514021759AD82AE83AFF090025A
:10153200A4E0FC9002A7EDF0EEA3F0EFA3F090027E
:09154200AAECF09025140216FB3E
:10154C00E582FF902C2893FEEF902C0093FF700106
:10155C00229002A5E0FD701BBF0209EEF4FC529232
:10156C00EC529322BF0402800122EEF4FC5296EC62
:10157C00529722BD0214BF0207EE4292EE42932212
:10158C00BF0439EE4296EE429722BD0116BF020807
:10159C00EEF45292EE429322BF0421EEF45296EEF8
:1015AC00429722BD0316BF0208EE4292EEF452930C
:1015BC0022BF0408EE4296EEF4FE529722AF82BF91
:1015CC000102800FBF02028013BF03028017BF0409
:1015DC0025801BE5C620E21E539DFB22E5C620E3B9
:1015EC0015539DF722E5C630E20C539DFB22E5C650
:1015FC0030E303539DF722E582FF902BD893FEEF47
:10160C00902C2893FDEF902C0093FF7003F5822211
:10161C00EE600D8E82C007C0051215C9D005D0072B
:10162C007E00BF0202800ABF03028009BF040C8047
:10163C0008AE908006AEA08002AEB0ED5E60047580
:10164C0082012275820022E582FF902BD893FEEF57
:10165C00902C2893FDEF902C0093FFEE600D8E8262
:10166C00C007C0051215C9D005D007A2AFE433FEE0
:10167C00C2AFBF0202800ABF03028017BF043680CC
:10168C00249002A6E07007EDF4FF52908027ED4203
:10169C009080229002A6E07007EDF4FF52A0801516
:1016AC00ED42A080109002A6E07007EDF4FF52B05E
:0B16BC008003ED42B0EE6002D2AF22CE
:1016C8007804EC7011E58224F8500AF582E4C9CA5E
:1016D800CBFCD8EF22EC7820058220E713D58201D5
:1016E80022C3E933F9EA33FAEB33FBEC33FCD8EAEB
:1016F800158222AE82AF839002A7E0FBA3E0FCA391
:10170800E0FD7A009002AAE0F9890019E8603F8BB1
:10171800828C838DF012293CF8A3AB82AC83C0077E
:10172800C006C005C004C003C002C001121739803A
:1017380007C006C007888222A882D001D002D00341
:10174800D004D005D006D007E860030A80BB8A829F
:1017580022AE82AF839002ABE0FBA3E0FCA3E0FDE6
:101768009002ABE0F5F0A3E045F07003F582227A31
:10177800008B828C838DF012293CF9A3AB82AC8359
:10178800E9F8602CC007C006C005C004C003C00249
:1017980012179D8007C006C007888222A982D0023E
:1017A800D003D004D005D006D007E960030A80C171
:1017B8008A8222AE82AF839002AEE0FAA3E0FBA356
:1017C800E0FCA3E0FD9002B6EAF0EBA3F0ECA3F096
:1017D800EDA3F09002BA740AF08E828F8302184C3F
:1017E800AE82AF839002B2E0FAA3E0FBA3E0FCA3D1
:1017F800E0FD9002DCEAF0EBA3F0ECA3F0EDA3F03F
:101808009002E0740AF08E828F83021935AE82AF9F
:1018180083C007C0061218228008C006C007758258
:101828000D22AD82D006D007C007C0051218398036
:1018380008C006C00775820A22AE82D005D007EE1E
:101848002DF582228582228583239002DBE4F090A5
:1018580002BAE0FDBD020050069002BA740AF09088
:1018680002BAE0F5247BDB7C029002B6E0F525A302
:10187800E0F526A3E0F527A3E0F528852429752AB5
:1018880000752B00752C00C004C003C029C02AC0F5
:101898002BC02C8525828526838527F0E5281226EE
:1018A800C4A882E58124FCF581C000C029C02AC0F3
:1018B8002BC02C8525828526838527F0E5281227CD
:1018C80086AA82AD83AEF0FFE58124FCF581D000C5
:1018D800D003D0049002B6EAF0EDA3F0EEA3F0EF47
:1018E800A3F01BBBFF011C8B068C07B80A0050082D
:1018F800880574302DFD8004743728FD8E828F830F
:10190800EDF09002B6E0F5F0A3E042F0A3E042F07B
:10191800A3E045F060030218719002ABEBF0ECA372
:10192800F0E4A3F085228285238302175985822D4E
:1019380085832E9002E0E0FD701B9002DCE0F9A3A5
:10194800E0FAA3E0FBA3E0FC1219558007C02DC004
:101958002E89822222BD0A028003021A029002DC2A
:10196800E0F9A3E0FAA3E0FBA3E0FC30E76FC004D2
:10197800C003C002C0011219838008C02DC02E7593
:10198800822D22A882D001D002D003D004882F90C3
:1019980002DCC3E499F0E49AA3F0E49BA3F0E49C8E
:1019A800A3F09002DCE0F530A3E0F531A3E0F532D6
:1019B800A3E0F5339002B6E530F0E531A3F0E53267
:1019C800A3F0E533A3F09002BA740AF0852D82855E
:1019D8002E8312184CAF82E52F2FF582229002B683
:1019E800E9F0EAA3F0EBA3F0ECA3F09002BA740AD2
:1019F800F0852D82852E8302184C9002DCE0FBA333
:101A0800E0FCA3E0FEA3E0FF9002B6EBF0ECA3F04D
:101A1800EEA3F0EFA3F09002BAEDF0852D82852EAB
:041A28008302184CD1
:101A2D00E582902C5093FFBFFF0475820022759ABA
:101A3D000974FC5580FE74035F4EF580D2842084BA
:101A4D00FD859F8222AF829002A57401F08F82C026
:101A5D000712154CD0079002E1E0FDA3E0FE4D709A
:101A6D000A9002A6E4F08F820216538D038E047441
:101A7D00FF2C500B9002A67401F08F82021653EFCB
:101A8D00902BD893FA24FB4034EA2A901A9C738049
:101A9D002C8006800D8014801B53C6FB439D048D46
:101AAD009C2253C6F7439D088D9B2243C604439D3C
:101ABD00048D9C2243C608439D088D9B22C3EB9445
:101ACD0080EC9400500A9002A6E4F08F8202165327
:0B1ADD009002A67401F08F82021653E5
:101AE9007F9E121B1030D103022831C3EF9582501B
:101AF9000974FFF5F0F583F582227900122B7F89AD
:101B0900828A838BF0EC22AA82AB83A2F73392D12B
:101B1900F5826002D2F7ACF022C0D075D00808B8BF
:101B2900000D09B900090ABA00050BBB00010CD068
:101B3900D032A2AFC2AFA808A909AA0AAB0BAC8AD6
:101B49008588F092AF30F51274012C600D08B80049
:101B59000909B900050ABA00010BC3EC9406FCECAB
:101B6900C313FC75F07DE8A4F8ADF075F07DE9A428
:101B79002DF9E435F0FD75F07DEAA42DFAE435F090
:101B8900FD75F07DEBA42DFB7D00EC28F582E93D88
:101B9900F583EA3DF5F0EB3D22A2AFC2AFA808A953
:101BA90009AA0AAB0BAC0C92AF75F020E8A4A8F017
:101BB90075F020E9A428F582A8F075F020EAA42898
:101BC900F583A8F075F020EBA428F9A8F075F020AA
:101BD900ECA42889F02285823485833585F036F591
:101BE90037121B3B85823885833985F03AF53BE509
:101BF90034453545364537700122A834A935AA360A
:101C0900AB3785383C85393D853A3E853B3FE849C8
:101C19004A4B60DBC003C002C001C000121B3BACD1
:101C290082AD83AEF0FFD000D001D002D003ECC367
:101C3900953CFCED953DFDEE953EFEEF953FFFC3CE
:101C4900EC94E8ED9403EE9400EF940040A118B8E9
:101C5900FF0919B9FF051ABAFF011B883489358AAA
:101C6900368B3774E8253CF53C7403353DF53DE486
:101C7900353EF53EE4353FF53F853C38853D3985B0
:101C89003E3A853F3B8087AE82AF83C374019EE4B1
:101C99009F40022200C374029EFE74009FFF00BE93
:101CA9000005BF0002002200000000000000000043
:101CB90000000000000000000EBE00EB0FBF00EDA9
:101CC900002275A15575A1AA74F855B94406F5B94C
:101CD90075A100901388121C901222761222A0126C
:101CE900228F75DD0075D30075D500759E5D759DD4
:101CF9000074F055894402F58953C9EF758C06C201
:081D09008DD2A9D28CD2AF22C9
:101D1200AFDBBF080280030220E5900007E0FE7FF0
:101D220000900006E0FD7C004FF519EC4EF51A7F9D
:101D320000900001E0F51B900000E0FE546060534B
:101D4200900000E0FE5306607D00BE2005BD00024B
:101D5200800BBE4039BD00367FFF0220E77420B5FC
:101D62001B030220E77421B51B0280077422B51BF6
:101D720018800C122440AD82AE838D070220E7C08A
:101D82000712246FD0070220E77FFF0220E77FFFC0
:101D92000220E7E51B24F450030220E1E51B240B9B
:101DA20083F582E51B241083F583E473C3F1E1B16B
:101DB200E1BBC6E1C8E5E7E7201E201F201E1D206B
:101DC2001E1E2020900003E0FEBE0102800ABE0219
:101DD20002800FBE03738014751C78751D2C7F1250
:101DE2008069751C8A751D2C7F46805F900002E019
:101DF2007008751CD0751D2C8044900002E0FEBE58
:101E02000108751C0C751D2D8034900002E0FEBE89
:101E12000208751CE0751D2C8024900002E0FEBEB5
:101E22000308751CD4751D2C8014900002E0FEBEC0
:101E32000408751CF6751D2C80047FFF800D851C1F
:101E420082851D83E493FF80027FFFBFFF03022090
:101E5200E78F057E00C3ED9519EE951A50048D1992
:101E62008E1AAD19AE1AC3ED9408EE940092014099
:101E7200067B087C008004AB19AC1A8B077C00C37C
:101E8200EC9F50198C027B00EC251CF582E4351D79
:101E9200F583E493F98A828B83F00C80E28F037CD2
:101EA20000EDC39BFDEE9CFE8D198E1AEF251CF5ED
:101EB2001CE4351DF51D0220E7900002E0FE8E199C
:101EC200751A000220E79002E3E0900000F0AD19DD
:101ED200AE1AC3ED9401EE940050030220E77F0195
:101EE2000220E7900002E0FE9002E3F00220E79079
:101EF2000000E0541F702F900003E0FD7E00900070
:101F020002E0FC7B004206EB4205BE0114BD00115B
:101F1200902C91E493FE30E5030220E77FFF02203C
:101F2200E77FFF0220E7900000E0FE53061F7D00DE
:101F3200BE0277BD0074900004E0FEBE0102805F25
:101F4200BE02028049BE03028033BE0402801DBE6F
:101F520081028040BE8202802ABE83028014BE8437
:101F62004474BC55DE4402F5DE0220E753DE730200
:101F720020E774BC55D64402F5D60220E753D67347
:101F82000220E774BC55D44402F5D40220E753D4AE
:101F9200730220E774BC55D24402F5D20220E75303
:101FA200D2730220E77FFF0220E77FFF0220E79043
:101FB2000000E0541F702F900003E0FD7E009000AF
:101FC20002E0FC7B004206EB4205BE0114BD00119B
:101FD200902C91E493FE30E5030220E77FFF02207C
:101FE200E77FFF0220E7900000E0FE53061F7D001E
:101FF200BE0205BD000280030220BF900003E0FD87
:102002007E00900002E0FC7B004206EB4205EE4DB2
:1020120060030220BB900005E0FD7E00900004E01A
:10202200FC7B004206EB4205BE0106BD0003022016
:10203200AFBE0205BD00028060BE0305BD00028086
:1020420044BE0405BD00028028BE8105BD00028099
:1020520052BE8205BD00028036BE8305BD000280ED
:102062001ABE8451BD004E74BF55DE4403F5DE80B6
:1020720074747F55DE440CF5DE806A74BF55D64415
:1020820003F5D68060747F55D6440CF5D68056741D
:10209200BF55D44403F5D4804C747F55D4440CF519
:1020A200D4804274BF55D24403F5D28038747F5530
:1020B200D2440CF5D27FFF802C7FFF80287FFF80E7
:1020C20024900000E4F0900001F0AD19AE1AC3EDC7
:1020D2009402EE940040047F02800AAF1980067FCA
:1020E200FF80027FFFBFFF07751BFF75DCCF22EF6A
:1020F20024F740068FDD75DCC02275DD0075DCC07B
:10210200227405B51B02805D7406B51B66AE19AF5D
:102112001AC3EE9408EF9400920240067C087D00F8
:102122008004AC19AD1A7D00C3ED9C50198D027B61
:1021320000ED251CF582E4351DF583E493F98A82CE
:102142008B83F00D80E28C037D00EEC39BFEEF9D3E
:10215200FF8E198F1AEC251CF51CE4351DF51D8C1C
:10216200DD63DC4022E5E35480FFE5194FF5E375BA
:10217200DC022275DD0075DC02227420B51B0D30F5
:10218200DE101223FB75DD0085DCDC2275DD0043E9
:10219200DC022275D30074FC55D24402F5D222200F
:1021A200D90302224CE5D9540FFFADD95305307E35
:1021B20000BD0005BE0002801CBD1005BE000280ED
:1021C20036BD2005BE00028043BD3006BE000302BC
:1021D200223202224AEF24FB500302224AEF2F90BE
:1021E20021E573800880618009805D805B12217C1B
:1021F200805612265D8051EF24FB404CEF2F902237
:102202000473804480428040803E803CEF24FB4047
:1022120037EF2F902219738008800B800E8029805F
:10222200271221038022122195801D12264F801829
:10223200EF24FB4013EF2F90223D7380088009802A
:102242000780058003121D12C2D930D81A75DC022C
:1022520075D21275D41275E300C2DAC2D9C2D8900F
:1022620002E3E4F01223F310DA0122E5DA20E203BA
:1022720075D8FF2275E20053E27F43E22975E3003D
:1022820053E2BF53D1FB75D18043D1012243E10414
:1022920043E10243E10143D81FD2EAD2AF227E00DA
:1022A2007F008EEC8FED7E0A7F008EEE8FEF7E1424
:1022B2007F008EE48FE575EB0C75D21275D4127522
:0622C200EA4075DC022277
:1022C800FFA8811818122699D2D133E6400730E7C3
:1022D8000B7582002220E70675820122C2D11226E0
:1022E8007BE97003F5822220D101B3E433F5822221
:1022F800C01E85811EC082C083E5812405F581AF9B
:102308001E0FE51E2403F8A607087600087640E5A8
:102318001E24FCFD7E007F40E51E2406F9A81E0849
:102328008604E51E24FCF886038CF0EBA4F709A7C5
:10233800F0E51E240604F98704A81E088603740124
:102348002DFAE43EFE8A828E838FF012293C8BF0B0
:10235800A4FBE51E2403F8740126FDE40836FE08F4
:1023680086078D828E838FF012293CFDE51E24FCA2
:10237800F886078DF0EFA42B2CF7E51E2406F987C5
:0F238800060987078E828F83851E81D01E223221
:012398003212
:10239A001214647900E583B58202800D5003122875
:1023AA005FE583C39582122B7FE5D0C465D020E117
:1023BA0017EA2DFAEB3EFBEC3FFC50097401122B95
:1023CA007FEC4480FC022810C3EA9DFAEB9EFBECEA
:1023DA009FFC500FC3E499F9E49AFAE49BFBE49C4E
:0923EA00FCB2D11216C802281041
:1023F300900375E4F0C203227F00C3E5DB940792E8
:102403000440067D077E008004ADDB7E008F037CE5
:1024130000C3EB9DEC64808EF063F08095F0501C5C
:10242300EF246EFDE43403FEEF2400F582E4340070
:10243300F583E0FC8D828E83F00F80BE227F008FB8
:10244300057E00C3ED9407EE9400501CEF2400FDBD
:10245300E43400FEEF246EF582E43403F583E0FCFC
:102463008D828E83F00F80D790000722900002E0C8
:10247300FF900377F0E020E03390036EE0FCA3E0ED
:10248300FDA3E0FEA3E0FFBCB022BD041FBE001C01
:10249300BF001975E200C2AF75890090C350121CCA
:1024A3009090C350121C9012380080FE227E007F51
:1024B300003003200EBE00010F900005C007C006C8
:1024C300121C90D006D007C3EE9450EF94C340E1A2
:1024D3007582002275820122751F00900377E060E8
:1024E30003751F01851F8222200325900378E0FFD7
:1024F300601E8FD553D4FCD203BF400F1224B0E526
:1025030082600875D50053D4FCD203900378E4F0BD
:1025130022AF82900377E06041C0071224B0E582C6
:10252300D0077003F58222900378E0FEBE4000508E
:10253300207D0074402EFEE43DFDEE2414F582ED73
:102543003400F583EFF0900378E02401F075820105
:1025530022C0071224EBD00780BF75820022AFF0A0
:10256300AE83E5829002E6F0EEA3F0EFA3F09003D2
:1025730077E070030226179002E4E0FEA3E0FFC3B6
:10258300E49E74808FF063F08095F0400302261779
:10259300C007C0061224B0E582D006D0077003F549
:1025A30082229002E6E0FBA3E0FCA3E0FDC3E49EED
:1025B30074808FF063F08095F050BC900378E0FA5C
:1025C300BA400050498A017A00744029F9E43AFA82
:1025D300E92414F9EA3400FA8B828C838DF01229F2
:1025E3003CF8A3AB82AC839002E6EBF0ECA3F0EDF6
:1025F300A3F089828A83E8F0900378E02401F01E37
:10260300BEFF011F9002E4EEF0EFA3F0809F1224BF
:10261300EB02257A75820022900375E0F582229001
:102623000375E07003F58222900376E02414F582AB
:10263300E43400F583E0FF900376E004F090037543
:10264300E014F0E0700353D4F38F822275D5007445
:10265300FC55D44402F5D4C2032230DE199003752D
:10266300E5DBF0900376E4F0900375E0600874F323
:0726730055D44408F5D42200
:10267B007901AA82E68F82B5821318E6B5F00E189F
:10268B00E6B5830918E68A82B58202790022B48006
:10269B000FE5F0700AE5837006E58270027F00EFAC
:1026AB00B6801518B6001018B6000B18B600060841
:1026BB00080876002208080822C01E85811EAC82FD
:1026CB00AD83AEF0FF05817B00A81E087600E51EEA
:1026DB0024FAF8080808E6235401FA704CE51E2486
:1026EB00FAF8E626F608E633F608E633F608E6339C
:1026FB00F6E51E24FAF8C3EC96ED0896EE0896EF75
:10270B000896501AE51E24FAF8080808E6C313F6D3
:10271B0018E613F618E613F618E613F6800BA81E48
:10272B000806A81E08860380A5E51E24FAF8C3EC4C
:10273B0096ED0896EE0896EF08964015E51E24FADE
:10274B00F8ECC396FCED0896FDEE0896FEEF0896A6
:10275B00FFE51E24FAF8080808E6C313F618E6137B
:10276B00F618E613F618E613F68B021BEA70BA8C12
:10277B00828D838EF0EF1581D01E22C01E85811EA7
:10278B00C082C083C0F0C0E07A007B007E007F0077
:10279B007D20A81E08080808E6235401FCA81E0883
:1027AB00E626F608E633F608E633F608E633F6EAED
:1027BB002AFAEB33FBEE33FEEF33FFEC60034302FD
:1027CB0001E51E24FAF8C3EA96EB0896EE0896EF9D
:1027DB000896401CE51E24FAF8EAC396FAEB089615
:1027EB00FBEE0896FEEF0896FFA81E08E64401F6DE
:1027FB00DDA0A81E0886820886830886F008E68579
:05280B001E81D01E2219
:10281000B98003EA13B34010EA2401FAE43BFBE475
:102820003CFC50047C800582BC000EBB000BBA004F
:1028300008E4F5F0F583F58222A2D1E582138CF04D
:1028400092F78B838A8222E4F583F58275F080F417
:10285000A2D11322E4F583F58275F0C0747F22E5DE
:1028600082C583F582A2D133A2D592D11392D5EC41
:10287000CFFCEBCEFBEACDFA2212146430D502B2C3
:10288000D1BF0009BC0003022854022847BC000342
:10289000022831E583B4FF0BE582B4FF030228541C
:1028A000022831E582B4FF03022847C3958350070D
:1028B000247F400B0228312480145003022847F55E
:1028C00082C3ED9AEE9BEF9C40111582C3EA33F967
:1028D000EB33FAEC33FBE433FC8005E4CCCBCAF9F0
:1028E000C08275F019C3E99DEA9EEB9FEC9400D578
:1028F000F002802D400EE99DF9EA9EFAEB9FFBEC79
:102900009400FCC3B3E833F8E58233F582E5833302
:10291000F583C3E933F9EA33FAEB33FBEC33FC809C
:10292000C4B3E4F938FAE43582FBE43583FCD082A1
:0C293000500405827C801216C802282882
:10293C0020F71430F6148883A88220F507E6A883C4
:10294C0075830022E280F7E49322E022E4AC82FB60
:10295C00FAF97486022AE7C01E85811EAE82E583D1
:10296C00FF33E433FD6009C3E49EFBE49FFC800469
:10297C008E038F04E51E24FCF808E630E70FE51EF5
:10298C0024FCF8C3E496FE08E496FF800AE51E24B6
:10299C00FCF88606088607C005C006C0078B828C2B
:1029AC00831229D1AE82AF8315811581D005ED60DC
:1029BC000DC3E49EFCE49FFD8C828D8380048E828B
:1029CC008F83D01E22C01E85811EAE82AF837D00F8
:1029DC007C00E51E24FCF808E6235401FB702FE56F
:1029EC001E24FCF8E626F608E633F6E51E24FCF871
:1029FC00C3EE96EF08965011E51E24FCF808E61875
:102A0C00C313C613C608F680050C8C0580C4E51EDE
:102A1C0024FCF8C3EE96EF0896400DE51E24FCF856
:102A2C00EEC396FEEF0896FFE51E24FCF808E618A8
:102A3C00C313C613C608F68D041DEC70D18E828F9D
:042A4C0083D01E22F3
:102A5000900379E0FF7E000FBF00010E7410C0E00C
:102A6000E4C0E08F828E83122963AE8215811581C6
:102A700090037AE0FFEEB5070122900379E024E9A4
:102A8000F582E43402F583E599F0900379EEF022C3
:102A900030054A90037BE0FF90037CE0FEEFB50633
:102AA00005A205C2052290037CE024F9F582E434F6
:102AB00002F583E0F59990037CE0FF7E000FBF00F4
:102AC000010E7410C0E0E4C0E08F828E831229638F
:0E2AD000AE82AF831581158190037CEEF0225B
:102ADE00FCABF0AA83A982749EC2D1F5821216C8ED
:032AEE00022810AB
:102AF10090037DE0FF7E000FBF00010E7410C0E067
:102B0100E4C0E08F828E83122963AE821581158124
:102B110090037EE0FFEEB507012290037DE02409DA
:102B2100F582E43403F583E5C1F090037DEEF022F4
:102B310030064A90037FE0FF900380E0FEEFB50688
:102B410005A206C20622900380E02419F582E4342E
:102B510003F583E0F5C1900380E0FF7E000FBF0025
:102B6100010E7410C0E0E4C0E08F828E83122963ED
:0E2B7100AE82AF8315811581900380EEF022B5
:102B7F006040F82582500274FFF582E824F8501E59
:102B8F00CCCBCAF9E4CC24F85014CBCAF9E4CB244B
:102B9F00F8500BCAF9E4CA24F8500379002224082C
:102BAF006010F8C3EC13FCEB13FBEA13FAE913F90B
:072BBF00D8F122758200220B
:102BC60030303030002D4F46460056302D31000D46
:022BD6000A00F3
:102BD80000000000000000000000000000000001EC
:102BE80000000000000000000000000000000304D6
:102BF80000000200000000000101010101010101C3
:102C080000000202020202020202000003030303A0
:102C18000303030300000404040404040404000080
:102C2800010204081020408000000102040810205E
:102C380040800000010204081020408000000102CA
:102C48000408102040800000FFFFFFFFFFFFFFFF88
:102C5800FFFFFF00FFFF0102FFFFFFFFFFFFFFFF76
:102C6800FFFFFFFFFFFFFFFF03FFFFFFFFFFFFFF68
:102C780012011001EF020108091250C501010102F9
:102C88000301090246000201008064080B000202E9
:102C980002010409040000010202010405240010D5
:102CA8000104240202052406000107058103080027
:102CB8004009040100020A0000040705020240005E
:102CC8000007058202400000040309040C034300C6
:102CD80048003500350078001603430048003500E9
:102CE800350078006400750069006E006F001603F7
:102CF800430044004300200053006500720069004F
:102D080061006C000E0344006500710069006E00EC
:022D1800670052
:102D1A005114000000000000000000000400000040
:102D2A000000000000000000000000000000000099
:102D3A000000000000000000000000000000000089
:0F2D4A000000000000000000000000000000007A
:042D5900651165118A
:022D5D00000074
:0B2D5F0000E100000000080000000080
:042D6A000000000065
:042D6E000000000061
:00000001FF
