:0600000002006B0217571D
:03000B00021F22AF
:030013000217AA27
:01001B0032B2
:030023000216BF03
:03002B0002278623
:01003300329A
:03003B000217FDAC
:0300430002168022
:01004B003282
:0300530002170B86
:01005B003272
:03006300022784ED
:030066000218512C
:02006900E4733E
:0D006B00758141122FB0E58260030200662E
:100078007950E94400601B7A0190312578AC75A06D
:1000880001E493F2A308B8000205A0D9F4DAF275E6
:02009800A0FFC7
:06009A00E478FFF6D8FD3A
:1000A0007800E84400600A799475A000E4F309D868
:1000B000FC7818E84401600C7902900094E4F0A305
:0400C000D8FCD9FA95
:1000C4009000FCE4F09000FDF0A3F0900103E4F054
:1000D40090010AE4F0900111E4F0A3F0A3F0A3F07E
:0E00E4007808E4F608F608F608F6780C7600C0
:0200F200C20446
:0200F400C20642
:0200F600C2073F
:0300F8000200669D
:1000FC009001E27401F022E5829000EBF0E0FF2425
:10010C00FB4057EF2F9001157380088019802480D5
:10011C002F803A9001B7E4F09001B6F09001B5F061
:10012C009001B4F080469001B4E0FFB40100E433D8
:10013C00F080399001B5E0FFB40100E433F0802C7D
:10014C009001B6E0FFB40100E433F0801F9001B7DA
:10015C00E0FFB40100E433F080129001B77401F0B9
:10016C009001B6F09001B5F09001B4F09001B7E0B9
:10017C00900129F075821E121A539001B6E090017D
:10018C0029F075821F121A539001B5E0900129F0E5
:10019C00758211121A539001B4E0900129F0758206
:1001AC0010021A5375A15575A1AA53B1FE75FF0023
:1001BC0075820012010390012CE4F5F0121FDF751B
:1001CC00820912010390012CE4F5F0121FDF7582F5
:1001DC000012010390012CE4F5F0121FDF75820967
:1001EC0012010390012CE4F5F0121FDF758200124E
:1001FC00010390012CE4F5F0121FDF75820112014E
:10020C00039001F4E4F5F0121FDF75820212010372
:10021C009001F4E4F5F0121FDF75820312010390D4
:10022C0001F4E4F5F0121FDF758204120103900152
:10023C00F4E4F5F0121FDF7582041201039001F44F
:10024C00E4F5F0121FDF7582031201039001F4E450
:10025C00F5F0121FDF7582021201039001F4E4F530
:10026C00F0121FDF7582011201039001F4E4F5F026
:10027C00121FDF75820012010390012CE4F5F012BD
:10028C001FDF121FA2AC82AD83AEF0FF9001DEEC3B
:10029C00F0EDA3F0EEA3F0EFA3F075A15575A1AAB4
:1002AC0043B10175FF0022AF83E5829000ECF0EFC3
:1002BC00A3F09000ECE0C0E0A3E0C0E090003212AC
:1002CC0026E6AE82AF831581158174AC2EFE740DBB
:1002DC003FFF7D007C008E828F838DF0EC22758237
:1002EC000B121E2D122D46AC82AD83AEF0FFC00456
:1002FC00C005C006C007902D2D75F08D74411215E8
:10030C00DDAC82AD83AEF0FFE58124FCF5818C82FF
:10031C008D838EF0EF229000F6E4F0A3F0A3F0A30F
:10032C00F01202EAAC82AD83AEF0FF9000F2ECF07A
:10033C00EDA3F0EEA3F0EFA3F09000EEECF0EDA344
:10034C00F0EEA3F0EFA3F075100074F62510500337
:10035C000204371202EAAB82AC83ADF0FE9000EEE1
:10036C00E0F8A3E0F9A3E0FAA3E0FFC006C005C0E3
:10037C0004C003C003C004C005C006888289838AF8
:10038C00F0EF1226B6AF82E58124FCF581D003D0C4
:10039C0004D005D006EF600E9000EEEBF0ECA3F06D
:1003AC00EDA3F0EEA3F0C006C005C004C00390009E
:1003BC00F2E0C0E0A3E0C0E0A3E0C0E0A3E0C0E056
:1003CC008B828C838DF0EE1226B6AA82E58124FCFA
:1003DC00F581D003D004D005D006EA600E9000F26F
:1003EC00EBF0ECA3F0EDA3F0EEA3F09000F6E0F848
:1003FC00A3E0F9A3E0FAA3E0FFC003C004C005C06A
:10040C0006888289838AF0EF122788AC82AD83AE8E
:10041C00F0FFE58124FCF5819000F6ECF0EDA3F003
:10042C00EEA3F0EFA3F005100203569000EEE0FCF3
:10043C00A3E0FDA3E0FEA3E0FF9000F2E0C0E0A388
:10044C00E0C0E0A3E0C0E0A3E0C0E08C828D838E2E
:10045C00F0EF122788AC82AD83AEF0FFE58124FC6F
:10046C00F5819000F6E0F8A3E0F9A3E0FAA3E0FB35
:10047C00C004C005C006C007888289838AF0EB12CD
:10048C00155AAC82AD83AEF0FFE58124FCF581906A
:10049C0000F6ECF0EDA3F0EEA3F0EFA3F09000F675
:1004AC00E0FCA3E0FDA3E0FEA3E0FFE4C0E0C0E0BD
:1004BC00C0E07441C0E08C828D838EF0EF122C670B
:1004CC00AC82AD83AEF0FFE58124FCF5818C828D8E
:1004DC00838EF0EF22120322AC82AD83AEF0FF7458
:1004EC0014C0E074AEC0E07487C0E0743FC0E08C10
:1004FC00828D838EF0EF1215DDAC82AD83AEF0FFF2
:10050C00E58124FCF5818C828D838EF0EF227F00B7
:10051C00BF14005035EF75F004A42495FD7400351C
:10052C00F0FEC007C006C0051204E1A982AA83AB85
:10053C00F0FCD005D006D0078D828E83E9F0EAA3BB
:10054C00F0EBA3F0ECA3F00F80C622AF83E5829012
:10055C0000FAF0EFA3F09000FFE4F0A3F0A3F0A3F7
:10056C00F09000FAE0FEA3E0FFBE0310BF000D9078
:10057C0000FC7401F0900000E4F5F0229000FCE027
:10058C00600E9000FCE4F09000FDF0A3F012051A50
:10059C009000FDE0FEA3E0FFEE2EFEEF33FFEE2E0B
:1005AC00FEEF33FFEE2495FEEF3400FFC007C006CC
:1005BC001204E1AA82AB83ACF0FDD006D0078E8288
:1005CC008F83EAF0EBA3F0ECA3F0EDA3F09000FD29
:1005DC00E0FEA3E0FF0EBE00010F7414C0E0E4C007
:1005EC00E08E828F83122D51AE82AF8315811581DF
:1005FC009000FDEEF0EFA3F07F00BF14005060EF11
:10060C0075F004A42495F582740035F0F583E0F5BB
:10061C0011A3E0F512A3E0F513A3E0F5149000FF8D
:10062C00E0F8A3E0F9A3E0FAA3E0FEC007C011C014
:10063C0012C013C014888289838AF0EE122788AB0B
:10064C0082AC83ADF0FEE58124FCF581D0079000EF
:10065C00FFEBF0ECA3F0EDA3F0EEA3F00F809B907A
:10066C0000FFE0FCA3E0FDA3E0FEA3E0FFE4C0E09C
:10067C00C0E074A0C0E023C0E08C828D838EF0EFCC
:10068C00122C67AC82AD83AEF0FFE58124FCF581C2
:10069C008C828D838EF0EF2275820F121A03AF823B
:1006AC009001B2EF24FFE433F075820E121A03E5C9
:1006BC008224FFE433FF9001B3F0EF7065121FA2A8
:1006CC00AC82AD83AEF0FF742C2CFC74013DFDE4C8
:1006DC003EFEE43FFFC007C006C005C004121FA2C7
:1006EC00A882A983AAF0FBD004D005D006D007C3FA
:1006FC00E89CE99DEA9EEB9F502875820FC007C0CD
:10070C0006C005C004121A03E582D004D005D00639
:10071C00D00770C19001B2E4F090010304F0900096
:10072C000322900103E06011900103E4F09001B208
:10073C00F09001B3F0900003229001B2E0FFE06072
:10074C000A9001B3E0600490000022EF700A90015F
:10075C00B3E06004900001229001B2E0600A9001C5
:10076C00B3E070049000022290000322AF83E58274
:10077C00900108F0EFA3F090010AE0B40100E4331B
:10078C00F0900108E0FEA3E0FFBE0306BF000302E9
:10079C000892900104E0FAA3E0FBA3E0FCA3E0FDC7
:1007AC00C3743C9A740F9BE49CE49DE433F9F89079
:1007BC0001B7F0C374A69A740E9BE49CE49DE433D9
:1007CC00F5159001B6F0C374429A740E9BE49CE448
:1007DC009DE433F5169001B5F0C374DE9A740D9B4D
:1007EC00E49CE49DE433FD9001B4F0900129E8F021
:1007FC0075821EC007C006C005C001121A539001B5
:10080C00B6E0900129F075821F121A539001B5E0E1
:10081C00900129F0758211121A539001B4E09001E5
:10082C0029F0758210121A53D001D005D006D007CA
:10083C00EE4F60030208D7E9601190010AE09001C5
:10084C0029F075821E121A530208D7E51560109014
:10085C00010AE0900129F075821F121A53806CE591
:10086C0016601090010AE0900129F0758211121A9D
:10087C00538058ED605590010AE0900129F0758283
:10088C0010121A53804590010AE0900129F07582EC
:10089C001E121A5390010AE0900129F07582101271
:1008AC001A53900129E4F075821F121A53900129F2
:1008BC00E4F0758211121A539001B47401F0900196
:1008CC00B7F09001B5E4F09001B6F0900094E023FD
:1008DC00235403FFBF0235900064E4F5F0121FDFD0
:1008EC00900129E4F075821E121A53900129E4F04C
:1008FC0075821F121A53900129E4F0758211121A95
:10090C0053900129E4F0758210021A5322AF83E54B
:10091C008290010FF0EFA3F0900111E0F5F0A3E04D
:10092C0042F0A3E042F0A3E045F0701C90010BE014
:10093C00FCA3E0FDA3E0FEA3E0FF900111ECF0EDC1
:10094C00A3F0EEA3F0EFA3F090010FE0FEA3E0FF05
:10095C00BE0005BF00028010BE0105BF0002803F33
:10096C00BE0273BF00708037900111E0FCA3E0FD64
:10097C00A3E0FEA3E0FF90010BE0F8A3E0F9A3E0F5
:10098C00FAA3E0FBC3E89CE99DEA9EEB9F505290D2
:10099C000111E8F0E9A3F0EAA3F0EBA3F080429098
:1009AC000111E0FCA3E0FDA3E0FEA3E0FF90010B2E
:1009BC00E0F8A3E0F9A3E0FAA3E0FBC3EC98ED990F
:1009CC00EE9AEF9B501B900111E8F0E9A3F0EAA31B
:1009DC00F0EBA3F0800B900111E4F0A3F0A3F0A3D3
:1009EC00F090010FE0FEA3E0FF900111E0FAA3E00C
:1009FC00FBA3E0FCA3E0FD900104EAF0EBA3F0EC18
:100A0C00A3F0EDA3F08E828F830207789001C2E4ED
:100A1C00F0A3F0A3F0A3F09001C6F0A3F0A3F0A311
:100A2C00F09001CAF0A3F0A3F0A3F09001CEF0A3D4
:100A3C00F0A3F0A3F09001D2F0A3F0A3F0A3F090F8
:100A4C0001D6F0A3F0A3F0A3F09001DAF0A3F0A389
:100A5C00F0A3F09001DEF0A3F0A3F0A3F02290013C
:100A6C00C2E0FCA3E0FDA3E0FEA3E0FF9001C2E026
:100A7C00F5F0A3E042F0A3E042F0A3E045F06061A2
:100A8C009001C6E0F8A3E0F9A3E0FAA3E0FB900123
:100A9C0015EC28F0ED39A3F0EE3AA3F0EF3BA3F000
:100AAC00121FA2AC82AD83AEF0FF900115E0F8A34B
:100ABC00E0F9A3E0FAA3E0FBC3E89CE99DEA9EEB16
:100ACC009F501E121FA2AC82AD83AEF0FF9001C6E8
:100ADC00ECF0EDA3F0EEA3F0EFA3F075824C120C4A
:100AEC008B9001CAE0FCA3E0FDA3E0FEA3E0FF9025
:100AFC0001CAE0F5F0A3E042F0A3E042F0A3E04528
:100B0C00F060619001CEE0F8A3E0F9A3E0FAA3E075
:100B1C00FB900115EC28F0ED39A3F0EE3AA3F0EFC1
:100B2C003BA3F0121FA2AC82AD83AEF0FF90011577
:100B3C00E0F8A3E0F9A3E0FAA3E0FBC3E89CE99D8D
:100B4C00EA9EEB9F501E121FA2AC82AD83AEF0FF4B
:100B5C009001CEECF0EDA3F0EEA3F0EFA3F07582D4
:100B6C0056120C8B9001D2E0FCA3E0FDA3E0FEA397
:100B7C00E0FF9001D2E0F5F0A3E042F0A3E042F0F8
:100B8C00A3E045F060619001D6E0F8A3E0F9A3E0A2
:100B9C00FAA3E0FB900115EC28F0ED39A3F0EE3A46
:100BAC00A3F0EF3BA3F0121FA2AC82AD83AEF0FF1B
:100BBC00900115E0F8A3E0F9A3E0FAA3E0FBC3E889
:100BCC009CE99DEA9EEB9F501E121FA2AC82AD8346
:100BDC00AEF0FF9001D6ECF0EDA3F0EEA3F0EFA396
:100BEC00F0758243120C8B9001DAE0F5F0A3E04231
:100BFC00F0A3E042F0A3E045F07001229001E2E0A6
:100C0C00601D9001E2E4F0121FA2AC82AD83AEF045
:100C1C00FF9001DEECF0EDA3F0EEA3F0EFA3F0906B
:100C2C0001DEE0FCA3E0FDA3E0FEA3E0FF9001DA0F
:100C3C00E0F8A3E0F9A3E0FAA3E0FB900115E82C9F
:100C4C00F0E93DA3F0EA3EA3F0EB3FA3F0121FA2A4
:100C5C00AC82AD83AEF0FF900115E0F8A3E0F9A3F0
:100C6C00E0FAA3E0FBC3E89CE99DEA9EEB9F500EE3
:100C7C009001DAE4F0A3F0A3F0A3F002110522E551
:100C8C0082900119F0758240122902900119E0FF3F
:100C9C00F582C007122902D007BF4203020E3EBFE5
:100CAC004303020D7EBF4603020DFABF4C028020A7
:100CBC00BF4F03020E05BF5003020DEEBF520302DD
:100CCC000E3EBF56028058BF5703020DB3020E6E84
:100CDC009001B7E0FF3395E0FEFD8F828E838DF09F
:100CEC001218939001B6E0FF3395E0FEFD8F828ED3
:100CFC00838DF01218939001B5E0FF3395E0FEFD63
:100D0C008F828E838DF01218939001B4E0FF33958F
:100D1C00E0FEFD8F828E838DF0121893020E6E9082
:100D2C0001B8E0FEA3E0FFBE0305BF0002803790D0
:100D3C0001BEE0FCA3E0FDA3E0FEA3E0FFC3EC9446
:100D4C0010ED9427EE9400EF9400501AC374E79CB6
:100D5C0074039DE49EE49F500D8C828D838EF0EF86
:100D6C001218D3020E6E902FB475F0801219130264
:100D7C000E6E7582461229029001B3E0FF3395E0A6
:100D8C00FEFD8F828E838DF012189375824312298B
:100D9C00029001B2E0FF3395E0FEFD8F828E838DD1
:100DAC00F0121893020E6E9001DAE0FCA3E0FDA3A2
:100DBC00E0FEA3E0FF9001DAE0F5F0A3E042F0A33F
:100DCC00E042F0A3E045F0600D8C828D838EF0EF55
:100DDC001218D3020E6E902FB475F08012191302F4
:100DEC000E6E902FB975F080121913020E6E902FA3
:100DFC00BE75F08012191380699001AEE0FCA3E07F
:100E0C00FDA3E0FEA3E0FF9001AEE0F5F0A3E0420D
:100E1C00F0A3E042F0A3E045F0600C8C828D838E51
:100E2C00F0EF1218D3803B902FB475F08012191389
:100E3C008030900119E0FFBF52067E217F008004B4
:100E4C007E227F008E82121A03E58260067EC37FAB
:100E5C002F80047EB47F2F7D808E828F838DF01245
:100E6C001913758223122902902FC875F08002196C
:100E7C0013122A09E5827001229000E6E09000E549
:100E8C00F09000E7E09000E6F09000E8E09000E7DA
:100E9C00F0122A10AF829000E8EFF09000E5E0FF2E
:100EAC00BF40028001229000E8E0FFBF23028001D6
:100EBC00229000E6E0FF9000E7E0FE24C69200409E
:100ECC002FBE3000920140288E047D00EC24D0FC13
:100EDC00ED34FFFDC007C006C004C0059003E81246
:100EEC0026E6AC82AD8315811581D006D00780042F
:100EFC007C007D008C02EDFB3395E0FCFDC007C04F
:100F0C0006C005C004C003C002121FA2858217854B
:100F1C00831885F019F51AD002D003D004D005D06F
:100F2C0006D007BF42030210B0BF4303020FB7BF86
:100F3C004603021100BF4C02802BBF4F0302104529
:100F4C00BF5003021021BF52030210B0BF54030262
:100F5C00109EBF56028031BF57028072BF580302E9
:100F6C00108A0210FF9001C2EAF0EBA3F0ECA3F0A0
:100F7C00EDA3F09001C6E517F0E518A3F0E519A371
:100F8C00F0E51AA3F00211009001CAEAF0EBA3F00D
:100F9C00ECA3F0EDA3F09001CEE517F0E518A3F06B
:100FAC00E519A3F0E51AA3F00211009001D2EAF0C2
:100FBC00EBA3F0ECA3F0EDA3F09001D6E517F0E570
:100FCC0018A3F0E519A3F0E51AA3F00211009000A4
:100FDC0094E023235403F9B901239001DAEAF0EBEE
:100FEC00A3F0ECA3F0EDA3F09001DEE517F0E5180B
:100FFC00A3F0E519A3F0E51AA3F00211009001DAB1
:10100C00E4F0A3F0A3F0A3F09001DEF0A3F0A3F0C2
:10101C00A3F0021100C007120A18D007900094E048
:10102C00543F4480F0900094E054DFF0E04410F022
:10103C00900094E0F5FE021100200034EE24CF5015
:10104C002F8E047D00EC24D0FCED34FFFD8C828DC2
:10105C0083C0071202B3AA82AB83ACF0FDD0079019
:10106C0001AEEAF0EBA3F0ECA3F0EDA3F00211005B
:10107C009001AEE4F0A3F0A3F0A3F0021100902FC6
:10108C00CB75F080121913902902121C151228D955
:10109C0080FE1201B0902FD375F080121913902995
:1010AC0002021C15BF52067C217D0080047C227D2F
:1010BC00009001287401F08C82C007C006C0041295
:1010CC00194CD004D006D007BE30028005BE3124A6
:1010DC008010900129E4F08C82C007121A53D007BB
:1010EC0080129001297401F08C82C007121A53D01F
:1010FC00078001228F82020C8B9001287401F075FD
:10110C00822112194C900129E4F0758221121A5394
:10111C00900064E4F5F0121FDF9001297401F07562
:10112C008221121A53900064E4F5F0121FDF900133
:10113C0029E4F0758221121A53900128E4F075828B
:10114C002102194CE58290011AF0E060669000943F
:10115C00E030E4479001287401F075822212194C9A
:10116C00900129E4F0758222121A53900064E4F580
:10117C00F0121FDF9001297401F0758222121A53AC
:10118C00900064E4F5F0121FDF900129E4F0758201
:10119C0022121A53900094E054EFF0900128E4F0DE
:1011AC0075822212194C900128E4F07582211219D3
:1011BC004C80429001287401F075822212194C90D7
:1011CC0001287401F075822112194C9001297401C7
:1011DC00F0758221121A53900064E4F5F0121FDFAF
:1011EC009001297401F0758222121A53900064E464
:1011FC00F5F0121FDF900094E0F5FE0228D9AF83C2
:10120C00E58290011FF0EFA3F0900121E4F0900132
:10121C001BE0FCA3E0FDA3E0FEA3E0FFC374E49C91
:10122C00740C9DE49EE49F500E900094E023235494
:10123C0003FBBB0102801BC374AC9C740D9DE49E2C
:10124C00E49F4003021301900094E054C060030239
:10125C001301900094E023235403FB6008BB0202AB
:10126C00800902133B9001217401F090011FE0F5FD
:10127C00F0A3E045F07007900094E04420F090005B
:10128C0094E030E51C90011FE0FAA3E0FBBA0105E5
:10129C00BB00028006BA0209BB0006900121740152
:1012AC00F0900121E060439001AEE0F8A3E0F9A3D7
:1012BC00E0FAA3E0FBC3E89CE99DEA9EEB9F506F2C
:1012CC00900094E0543F4440F0900094E054DFF0E0
:1012DC0075820112115012051A902FDB75F08012D5
:1012EC001913902902121C158045900094E0543F6C
:1012FC004480F0803A90011FE0FEA3E0FFBE03059E
:10130C00BF00028013900094E0543FF0E04410F0D2
:10131C007582001211508017900094E054C0700F29
:10132C00900094E0543F4440F075820112115090AB
:10133C000094E0F5FE22900128E4F075820B12195E
:10134C004C9001287402F075820F12194C900128F0
:10135C007402F075820E12194C9001B2E4F09001F7
:10136C00B3F0900128F075822212194C900128E4F8
:10137C00F075822112194C900128E4F0758220122C
:10138C00194C9001B7E4F09001B6F09001B5F090D3
:10139C0001B4F090012804F075821E12194C9001D2
:1013AC00B7E0900129F075821E121A53900128742F
:1013BC0001F075821F12194C9001B6E0900129F0D2
:1013CC0075821F121A539001287401F07582111244
:1013DC00194C9001B5E0900129F0758211121A5345
:1013EC009001287401F075821012194C9001B4E030
:1013FC00900129F0758210021A531213421228D947
:10140C00900094E5FEF0E07018900094E0543FF0EA
:10141C009001AEE4F0A3F0A3F0A3F07582001211DA
:10142C0050900094E0F5FE90012274FCF07400A33F
:10143C00F09001247401F0758200121566120A18DE
:10144C0012051A75A15575A1AA43B10175FF0022A9
:10145C0075FF009001BAE0FCA3E0FDA3E0FEA3E061
:10146C00FF74F42CFC74013DFDE43EFEE43FFFC030
:10147C0007C006C005C004121FA2A882A983AAF047
:10148C00FBD004D005D006D007C3EC98ED99EE9AAA
:10149C00EF9B40030215541206A4AE82AF83900159
:1014AC00B8EEF0EFA3F08E828F83120557121EE96F
:1014BC00AC82AD83AEF0FF9001BEECF0EDA3F0EE8C
:1014CC00A3F0EFA3F09001B8E0FAA3E0FB90011BAE
:1014DC00ECF0EDA3F0EEA3F0EFA3F08A828B831275
:1014EC00120A9001B8E0FEA3E0FF9001BEE0FAA35F
:1014FC00E0FBA3E0FCA3E0FD90010BEAF0EBA3F012
:10150C00ECA3F0EDA3F08E828F83120919120A6AF4
:10151C00121FA2AC82AD83AEF0FF9001BAECF0EDDD
:10152C00A3F0EEA3F0EFA3F0900094E02323540378
:10153C00FBBB02149001BA74DC2CF074053DA3F0D3
:0E154C00E43EA3F0E43FA3F0120E7D0228D986
:10155A00A8811818C6B2E7C602278822AF82BF023E
:10156A0000503EEF75F002A424E3FD740135F0FE4D
:10157A00900122E0FBA3E0FC8D828E83EBF0ECA3CA
:10158A00F0BF00028005BF0118800B900124E024FF
:10159A00FF9288D2A822900124E0FF24FF928AD2E7
:1015AA00AA22AF82BF02005028BF00028005BF01F5
:1015BA00088004C2A88002C2AAEF75F002A424E33C
:1015CA00FE740135F0FF8E828F837465F07415A363
:0215DA00F022FD
:1015DD00121864BC0003022C1FEF60FA30D502B262
:1015ED00D1E583B4FF03022C35E582B4FF03022C51
:1015FD0035258340072482400B022C1F2483145071
:10160D0003022C35F582EA8DF0A4A8F0EA8EF0A441
:10161D0028F8E435F0F9EB8DF0A428E935F0F9E47C
:10162D0033CA8FF0A429F9EA35F0FAEBF88EF0A45D
:10163D0029F9EA35F0FAE433FBEC8DF0A429F9EA47
:10164D0035F0FAE43BFBE88FF0A42AFAEB35F0FB1A
:10165D00E433CCFD8EF0A42AFAEB35F0FBE43CFC30
:10166D00ED8FF0A42BFBEC35F0FC20E703121AC82C
:03167D00022BFE3F
:10168000C021C0E0C0F0C082C083C007C006C00552
:10169000C004C003C002C001C000C0D075D0001299
:1016A000258ED0D0D000D001D002D003D004D005F8
:1016B000D006D007D083D082D0F0D0E0D02132C085
:1016C00021C0E0C0F0C082C083C007C006C005C012
:1016D00004C003C002C001C000C0D075D000309863
:1016E00005122E3EC298309905122E7EC299D0D096
:1016F000D000D001D002D003D004D005D006D0074E
:10170000D083D082D0F0D0E0D02132C021C0E0C060
:10171000F0C082C083C007C006C005C004C003C0BB
:1017200002C001C000C0D075D00030C005122EDF4D
:10173000C2C030C105122F1FC2C1D0D0D000D0010D
:10174000D002D003D004D005D006D007D083D082F9
:10175000D0F0D0E0D02132C021C0E0C0F0C082C0C3
:1017600083C007C006C005C004C003C002C001C0DA
:1017700000C0D075D0009001E3E0FEA3E0FFC007F9
:10178000C0068E828F83120069D006D007D0D0D0D9
:1017900000D001D002D003D004D005D006D007D0AD
:1017A00083D082D0F0D0E0D02132C021C0E0C0F0A0
:1017B000C082C083C007C006C005C004C003C00209
:1017C000C001C000C0D075D0009001E5E0FEA3E0EC
:1017D000FFC007C0068E828F83120069D006D00733
:1017E000D0D0D000D001D002D003D004D005D00694
:1017F000D007D083D082D0F0D0E0D02132C021C039
:10180000E0C0F0C082C083C007C006C005C004C0ED
:1018100003C002C001C000C0D075D0009001E7E055
:10182000FEA3E04E600E9001E7E0F8A3E0F58388A8
:1018300082120069D0D0D000D001D002D003D004F1
:10184000D005D006D007D083D082D0F0D0E0D02110
:10185000321220CB12140612145C1228D980F875AB
:03186000820022E1
:10186400AA82AB83A2F73392D1F5826002D2F7AC9D
:10187400F0E58124F9F8E6FD08E6FE0886F008E6BE
:0E188400A2F73392D5F5836002D2F7AFF022BF
:1018920022AC82AD83AEF0FF900135ECF0EDA3F007
:1018A200EEA3F0EFA3F0902902021BE8AC82AD8315
:1018B200AEF0FF900125E0FB90015FECF0EDA3F0AC
:1018C200EEA3F0EFA3F0900163EBF0902902021D6A
:1018D20035AC82AD83AEF0FF900131ECF0EDA3F0B8
:1018E200EEA3F0EFA3F0902902021BBBAC82AD8302
:1018F200AEF0FF900126E0FB90015FECF0EDA3F06B
:10190200EEA3F0EFA3F0900163EBF0902902021D29
:1019120035AD82AE83AFF090012EEDF0EEA3F0EF85
:10192200A3F0902902021B59AD82AE83AFF0900161
:1019320027E0FC90012AEDF0EEA3F0EFA3F0900176
:091942002DECF0902902021AFBC1
:10194C00E582FF90303393FEEF90300B93FF7001E4
:10195C0022900128E0FD701BBF0209EEF4FC5292AC
:10196C00EC529322BF0402800122EEF4FC5296EC5E
:10197C00529722BD0214BF0207EE4292EE4293220E
:10198C00BF0439EE4296EE429722BD0116BF020803
:10199C00EEF45292EE429322BF0421EEF45296EEF4
:1019AC00429722BD0316BF0208EE4292EEF4529308
:1019BC0022BF0408EE4296EEF4FE529722AF82BF8D
:1019CC000102800FBF02028013BF03028017BF0405
:1019DC0025801BE5C620E21E539DFB22E5C620E3B5
:1019EC0015539DF722E5C630E20C539DFB22E5C64C
:1019FC0030E303539DF722E582FF902FE393FEEF34
:101A0C0090303393FDEF90300B93FF7003F58222EF
:101A1C00EE600D8E82C007C0051219C9D005D00723
:101A2C007E00BF0202800ABF03028009BF040C8043
:101A3C0008AE908006AEA08002AEB0ED5E6004757C
:101A4C0082012275820022E582FF902FE393FEEF44
:101A5C0090303393FDEF90300B93FFEE600D8E8240
:101A6C00C007C0051219C9D005D007A2AFE433FED8
:101A7C00C2AFBF0202800ABF03028017BF043680C8
:101A8C0024900129E07007EDF4FF52908027ED427D
:101A9C00908022900129E07007EDF4FF52A0801590
:101AAC00ED42A08010900129E07007EDF4FF52B0D8
:0B1ABC008003ED42B0EE6002D2AF22CA
:101AC8007804EC7011E58224F8500AF582E4C9CA5A
:101AD800CBFCD8EF22EC7820058220E713D58201D1
:101AE80022C3E933F9EA33FAEB33FBEC33FCD8EAE7
:101AF800158222AE82AF8390012AE0FBA3E0FCA30B
:101B0800E0FD7A0090012DE0F9890019E8603F8B2B
:101B1800828C838DF0122D2AF8A3AB82AC83C00788
:101B2800C006C005C004C003C002C001121B398032
:101B380007C006C007888222A882D001D002D0033D
:101B4800D004D005D006D007E860030A80BB8A829B
:101B580022AE82AF8390012EE0FBA3E0FCA3E0FD60
:101B680090012EE0F5F0A3E045F07003F582227AAB
:101B7800008B828C838DF0122D2AF9A3AB82AC8363
:101B8800E9F8602CC007C006C005C004C003C00245
:101B9800121B9D8007C006C007888222A982D00236
:101BA800D003D004D005D006D007E960030A80C16D
:101BB8008A8222AE82AF83900131E0FAA3E0FBA3D0
:101BC800E0FCA3E0FD900139EAF0EBA3F0ECA3F010
:101BD800EDA3F090013D740AF08E828F83021C4CB5
:101BE800AE82AF83900135E0FAA3E0FBA3E0FCA34B
:101BF800E0FD90015FEAF0EBA3F0ECA3F0EDA3F0B9
:101C0800900163740AF08E828F83021D35AE82AF15
:101C180083C007C006121C228008C006C007758250
:101C28000D22AD82D006D007C007C005121C39802E
:101C380008C006C00775820A22AE82D005D007EE1A
:101C48002DF5822285822285832390015EE4F0901F
:101C5800013DE0FDBD0200500690013D740AF09080
:101C6800013DE0F5247B5E7C01900139E0F525A378
:101C7800E0F526A3E0F527A3E0F528852429752AB1
:101C880000752B00752C00C004C003C029C02AC0F1
:101C98002BC02C8525828526838527F0E528122AE6
:101CA800B2A882E58124FCF581C000C029C02AC001
:101CB8002BC02C8525828526838527F0E528122BC5
:101CC80074AA82AD83AEF0FFE58124FCF581D000D3
:101CD800D003D004900139EAF0EDA3F0EEA3F0EFC1
:101CE800A3F01BBBFF011C8B068C07B80A00500829
:101CF800880574302DFD8004743728FD8E828F830B
:101D0800EDF0900139E0F5F0A3E042F0A3E042F0F5
:101D1800A3E045F06003021C7190012EEBF0ECA3E8
:101D2800F0E4A3F0852282852383021B5985822D46
:101D380085832E900163E0FD701B90015FE0F9A39D
:101D4800E0FAA3E0FBA3E0FC121D558007C02DC0FC
:101D58002E89822222BD0A028003021E0290015FA0
:101D6800E0F9A3E0FAA3E0FBA3E0FC30E76FC004CE
:101D7800C003C002C001121D838008C02DC02E758B
:101D8800822D22A882D001D002D003D004882F90BF
:101D9800015FC3E499F0E49AA3F0E49BA3F0E49C08
:101DA800A3F090015FE0F530A3E0F531A3E0F53250
:101DB800A3E0F533900139E530F0E531A3F0E532E1
:101DC800A3F0E533A3F090013D740AF0852D8285D8
:101DD8002E83121C4CAF82E52F2FF58222900139F9
:101DE800E9F0EAA3F0EBA3F0ECA3F090013D740A4C
:101DF800F0852D82852E83021C4C90015FE0FBA3A9
:101E0800E0FCA3E0FEA3E0FF900139EBF0ECA3F0C7
:101E1800EEA3F0EFA3F090013DEDF0852D82852E25
:041E280083021C4CC9
:101E2D00E58290305B93FFBFFF0475820022759AA7
:101E3D000974FC5580FE74035F4EF580D2842084B6
:101E4D00FD859F8222AF829001287401F08F82C0A0
:101E5D000712194CD007900164E0FDA3E0FE4D7010
:101E6D000A900129E4F08F82021A538D038E0474B7
:101E7D00FF2C500B9001297401F08F82021A53EF41
:101E8D00902FE393FA24FB4034EA2A901E9C738032
:101E9D002C8006800D8014801B53C6FB439D048D42
:101EAD009C2253C6F7439D088D9B2243C604439D38
:101EBD00048D9C2243C608439D088D9B22C3EB9441
:101ECD0080EC9400500A900129E4F08F82021A539D
:0B1EDD009001297401F08F82021A535B
:101EE9007F9E121F1030D103022C1FC3EF95825021
:101EF9000974FFF5F0F583F582227900122F6D89B7
:101F0900828A838BF0EC22AA82AB83A2F73392D127
:101F1900F5826002D2F7ACF022C0D075D00808B8BB
:101F2900000D09B900090ABA00050BBB00010CD064
:101F3900D032A2AFC2AFA808A909AA0AAB0BAC8AD2
:101F49008588F092AF30F51274012C600D08B80045
:101F59000909B900050ABA00010BC3EC9406FCECA7
:101F6900C313FC75F07DE8A4F8ADF075F07DE9A424
:101F79002DF9E435F0FD75F07DEAA42DFAE435F08C
:101F8900FD75F07DEBA42DFB7D00EC28F582E93D84
:101F9900F583EA3DF5F0EB3D22A2AFC2AFA808A94F
:101FA90009AA0AAB0BAC0C92AF75F020E8A4A8F013
:101FB90075F020E9A428F582A8F075F020EAA42894
:101FC900F583A8F075F020EBA428F9A8F075F020A6
:101FD900ECA42889F02285823485833585F036F58D
:101FE90037121F3B85823885833985F03AF53BE501
:101FF90034453545364537700122A834A935AA3606
:10200900AB3785383C85393D853A3E853B3FE849C4
:102019004A4B60DBC003C002C001C000121F3BACC9
:1020290082AD83AEF0FFD000D001D002D003ECC363
:10203900953CFCED953DFDEE953EFEEF953FFFC3CA
:10204900EC94E8ED9403EE9400EF940040A118B8E5
:10205900FF0919B9FF051ABAFF011B883489358AA6
:10206900368B3774E8253CF53C7403353DF53DE482
:10207900353EF53EE4353FF53F853C38853D3985AC
:102089003E3A853F3B8087AE82AF83C374019EE4AD
:102099009F40022200C374029EFE74009FFF00BE8F
:1020A9000005BF000200220000000000000000003F
:1020B90000000000000000000EBE00EB0FBF00EDA5
:1020C900002275A15575A1AA74F855B94406F5B948
:1020D90075A10090138812209012266312268D1282
:1020E900267C75DD0075D30075D500759E5D759DDF
:1020F9000074F055894402F58953C9EF758C06C2FD
:082109008DD2A9D28CD2AF22C5
:10211200AFDBBF080280030224D2900007E0FE7FFB
:1021220000900006E0FD7C004FF51BEC4EF51C7F95
:1021320000900001E0F51D900000E0FE5460605345
:10214200900000E0FE5306607D00BE2005BD000247
:10215200800BBE4039BD00367FFF0224D47420B507
:102162001D030224D47421B51D0280077422B51DFB
:1021720018800C12282EAD82AE838D070224D4C0A3
:102182000712285DD0070224D47FFF0224D47FFFE8
:102192000224D4E51D24F450030224CEE51D240BB1
:1021A20083F582E51D241083F583E473B0DECE9EB1
:1021B200CEA8C6CEB5D2D4D42422242324222124CC
:1021C20022222424900003E0FEBE0102800ABE0205
:1021D20002800FBE03608014751E83751F307F124C
:1021E2008056751E95751F307F46804C900002E028
:1021F200FE24FB4036EE2E9021FD738008800E8077
:1022020014801A8020751EDB751F30801E751E1704
:10221200751F318016751EEB751F30800E751EDF1F
:10222200751F308006751E01751F31851E82851F40
:1022320083E493FF80027FFFBFFF030224D48F0554
:102242007E00C3ED951BEE951C50048D1B8E1CADBC
:102252001BAE1CC3ED9408EE9400920240067B086C
:102262007C008004AB1BAC1C8B077C00C3EC9F5032
:10227200198C027B00EC251EF582E4351FF583E400
:1022820093F98A828B83F00C80E28F037C00EDC38A
:102292009BFDEE9CFE8D1B8E1CEF251EF51EE4356C
:1022A2001FF51F0224D4900002E0FE8E1B751C0055
:1022B2000224D4900166E0900000F0AD1BAE1CC376
:1022C200ED9401EE940050030224D47F010224D441
:1022D200900002E0FE900166F00224D4900000E03B
:1022E200541F702F900003E0FD7E00900002E0FC7E
:1022F2007B004206EB4205BE0114BD001190309CEA
:10230200E493FE30E5030224D47FFF0224D47FFF4E
:102312000224D4900000E0FE53061F7D00BE027727
:10232200BD0074900004E0FEBE0102805FBE0202A6
:102332008049BE03028033BE0402801DBE8102803A
:1023420040BE8202802ABE83028014BE844474BCD2
:1023520055DE4402F5DE0224D453DE730224D47423
:10236200BC55D64402F5D60224D453D6730224D4E3
:1023720074BC55D44402F5D40224D453D473022439
:10238200D474BC55D24402F5D20224D453D273027F
:1023920024D47FFF0224D47FFF0224D4900000E0E3
:1023A200541F702F900003E0FD7E00900002E0FCBD
:1023B2007B004206EB4205BE0114BD001190309C29
:1023C200E493FE30E5030224D47FFF0224D47FFF8E
:1023D2000224D4900000E0FE53061F7D00BE0205D9
:1023E200BD000280030224AC900003E0FD7E009059
:1023F2000002E0FC7B004206EB4205EE4D60030268
:1024020024A8900005E0FD7E00900004E0FC7B0023
:102412004206EB4205BE0106BD000302249CBE0239
:1024220005BD00028060BE0305BD00028044BE04FB
:1024320005BD00028028BE8105BD00028052BE8219
:1024420005BD00028036BE8305BD0002801ABE842F
:1024520051BD004E74BF55DE4403F5DE8074747FB7
:1024620055DE440CF5DE806A74BF55D64403F5D6BA
:102472008060747F55D6440CF5D6805674BF55D40F
:102482004403F5D4804C747F55D4440CF5D4804277
:1024920074BF55D24403F5D28038747F55D2440CB0
:1024A200F5D27FFF802C7FFF80287FFF8024900061
:1024B20000E4F0900001F0AD1BAE1CC3ED9402EEFF
:1024C200940040047F02800AAF1B80067FFF8002D7
:1024D2007FFFBFFF07751DFF75DCCF22EF24F7409A
:1024E200068FDD75DCC02275DD0075DCC022740547
:1024F200B51D02805D7406B51D66AE1BAF1CC3EE32
:102502009408EF9400920340067C087D008004AC9E
:102512001BAD1C7D00C3ED9C50198D027B00ED2587
:102522001EF582E4351FF583E493F98A828B83F0EA
:102532000D80E28C037D00EEC39BFEEF9DFF8E1BA0
:102542008F1CEC251EF51EE4351FF51F8CDD63DCA8
:102552004022E5E35480FFE51B4FF5E375DC0222E0
:1025620075DD0075DC02227420B51D0D30DE1012FF
:1025720027E975DD0085DCDC2275DD0043DC022203
:1025820075D30074FC55D24402F5D22220D903023D
:102592002639E5D9540FFFADD95305307E00BD0071
:1025A20005BE0002801CBD1005BE00028036BD20A3
:1025B20005BE00028043BD3006BE000302261F0294
:1025C2002637EF24FB5003022637EF2F9025D273D4
:1025D200800880618009805D805B122569805612C7
:1025E2002A4B8051EF24FB404CEF2F9025F1738052
:1025F2004480428040803E803CEF24FB4037EF2FF6
:10260200902606738008800B800E80298027122472
:10261200F08022122582801D122A3D8018EF24FBB1
:102622004013EF2F90262A738008800980078005C7
:102632008003122112C2D930D81A75DC0275D21267
:1026420075D41275E300C2DAC2D9C2D8900166E429
:10265200F01227E110DA0122E5DA20E20375D8FF51
:102662002275E20053E27F43E22975E30053E2BFA1
:1026720053D1FB75D18043D1012243E10443E102EE
:1026820043E10143D81FD2EAD2AF227E007F008EFF
:10269200EC8FED7E0A7F008EEE8FEF7E147F008E30
:1026A200E48FE575EB0C75D21275D41275EA40759C
:0326B200DC022225
:1026B600FFA8811818122A87D2D133E6400730E7DF
:1026C6000B7582002220E70675820122C2D1122AEA
:1026D60069E97003F5822220D101B3E433F5822241
:1026E600C040858140C082C083E5812405F581AF65
:1026F600400FE5402403F8A607087600087640E573
:102706004024FCFD7E007F40E5402406F9A84008F1
:102716008604E54024FCF886038CF0EBA4F709A7B1
:10272600F0E540240604F98704A8400886037401EE
:102736002DFAE43EFE8A828E838FF0122D2A8BF0CC
:10274600A4FBE5402403F8740126FDE40836FE08E0
:1027560086078D828E838FF0122D2AFDE54024FC9C
:10276600F886078DF0EFA42B2CF7E5402406F987B1
:0F277600060987078E828F83854081D0402232EB
:012786003220
:102788001218647900E583B58202800D5003122C7B
:102798004DE583C39582122F6DE5D0C465D020E145
:1027A80017EA2DFAEB3EFBEC3FFC50097401122F9F
:1027B8006DEC4480FC022BFEC3EA9DFAEB9EFBEC19
:1027C8009FFC500FC3E499F9E49AFAE49BFBE49C5C
:0927D800FCB2D1121AC8022BFE5A
:1027E1009001F0E4F0C204227F00C3E5DB9407927C
:1027F1000540067D077E008004ADDB7E008F037CF3
:1028010000C3EB9DEC64808EF063F08095F0501C6A
:10281100EF24E9FDE43401FEEF2400F582E4340005
:10282100F583E0FC8D828E83F00F80BE227F008FC6
:10283100057E00C3ED9407EE9400501CEF2400FDCB
:10284100E43400FEEF24E9F582E43401F583E0FC91
:102851008D828E83F00F80D790000722900002E0D6
:10286100FF9001F2F0E020E0339001E9E0FCA3E009
:10287100FDA3E0FEA3E0FFBCB022BD041FBE001C0F
:10288100BF001975E200C2AF75890090C3501220D4
:102891009090C35012209012380080FE227E007F5B
:1028A100003004200EBE00010F900005C007C006D5
:1028B100122090D006D007C3EE9450EF94C340E1AC
:1028C10075820022758201227541009001F2E0605B
:1028D10003754101854182222004259001F3E0FF27
:1028E100601E8FD553D4FCD204BF400F12289EE541
:1028F10082600875D50053D4FCD2049001F3E4F052
:1029010022AF829001F2E06041C00712289EE58269
:10291100D0077003F582229001F3E0FEBE40005023
:10292100207D0074402EFEE43DFDEE2414F582ED81
:102931003400F583EFF09001F3E02401F07582019A
:1029410022C0071228D9D00780BF75820022AFF0BC
:10295100AE83E582900169F0EEA3F0EFA3F0900160
:10296100F2E07003022A05900167E0FEA3E0FFC3D5
:10297100E49E74808FF063F08095F04003022A0595
:10298100C007C00612289EE582D006D0077003F565
:102991008222900169E0FBA3E0FCA3E0FDC3E49E79
:1029A10074808FF063F08095F050BC9001F3E0FAF1
:1029B100BA400050498A017A00744029F9E43AFA90
:1029C100E92414F9EA3400FA8B828C838DF0122DFC
:1029D1002AF8A3AB82AC83900169EBF0ECA3F0ED94
:1029E100A3F089828A83E8F09001F3E02401F01ECC
:1029F100BEFF011F900167EEF0EFA3F0809F122848
:102A0100D9022968758200229001F0E0F5822290B6
:102A110001F0E07003F582229001F1E02414F582C7
:102A2100E43400F583E0FF9001F1E004F09001F05F
:102A3100E014F0E0700353D4F38F822275D5007453
:102A4100FC55D44402F5D4C2042230DE199001F0C1
:102A5100E5DBF09001F1E4F09001F0E0600874F33F
:072A610055D44408F5D4220E
:102A69007901AA82E68F82B5821318E6B5F00E18AD
:102A7900E6B5830918E68A82B58202790022B48014
:102A89000FE5F0700AE5837006E58270027F00EFBA
:102A9900B6801518B6001018B6000B18B60006084F
:102AA900080876002208080822C040858140AC82C7
:102AB900AD83AEF0FF05817B00A840087600E540B4
:102AC90024FAF8080808E6235401FA704CE5402472
:102AD900FAF8E626F608E633F608E633F608E633AA
:102AE900F6E54024FAF8C3EC96ED0896EE0896EF61
:102AF9000896501AE54024FAF8080808E6C313F6C0
:102B090018E613F618E613F618E613F6800BA84034
:102B19000806A84008860380A5E54024FAF8C3EC16
:102B290096ED0896EE0896EF08964015E54024FACA
:102B3900F8ECC396FCED0896FDEE0896FEEF0896B4
:102B4900FFE54024FAF8080808E6C313F618E61367
:102B5900F618E613F618E613F68B021BEA70BA8C20
:102B6900828D838EF0EF1581D04022C0408581404F
:102B7900C082C083C0F0C0E07A007B007E007F0085
:102B89007D20A84008080808E6235401FCA840084D
:102B9900E626F608E633F608E633F608E633F6EAFB
:102BA9002AFAEB33FBEE33FEEF33FFEC600343020B
:102BB90001E54024FAF8C3EA96EB0896EE0896EF89
:102BC9000896401CE54024FAF8EAC396FAEB089601
:102BD900FBEE0896FEEF0896FFA84008E64401F6CA
:102BE900DDA0A8400886820886830886F008E68565
:052BF9004081D04022E4
:102BFE00B98003EA13B34010EA2401FAE43BFBE484
:102C0E003CFC50047C800582BC000EBB000BBA005D
:102C1E0008E4F5F0F583F58222A2D1E582138CF05B
:102C2E0092F78B838A8222E4F583F58275F080F425
:102C3E00A2D11322E4F583F58275F0C0747F22E5EC
:102C4E0082C583F582A2D133A2D592D11392D5EC4F
:102C5E00CFFCEBCEFBEACDFA2212186430D502B2CD
:102C6E00D1BF0009BC0003022C42022C35BC00036C
:102C7E00022C1FE583B4FF0BE582B4FF03022C4246
:102C8E00022C1FE582B4FF03022C35C39583500737
:102C9E00247F400B022C1F2480145003022C35F588
:102CAE0082C3ED9AEE9BEF9C40111582C3EA33F975
:102CBE00EB33FAEC33FBE433FC8005E4CCCBCAF9FE
:102CCE00C08275F019C3E99DEA9EEB9FEC9400D586
:102CDE00F002802D400EE99DF9EA9EFAEB9FFBEC87
:102CEE009400FCC3B3E833F8E58233F582E5833311
:102CFE00F583C3E933F9EA33FAEB33FBEC33FC80AB
:102D0E00C4B3E4F938FAE43582FBE43583FCD082AF
:0C2D1E00500405827C80121AC8022C169A
:102D2A0020F71430F6148883A88220F507E6A883D2
:102D3A0075830022E280F7E49322E022E4AC82FB6E
:102D4A00FAF97486022ED5C040858140AE82E583A9
:102D5A00FF33E433FD6009C3E49EFBE49FFC800477
:102D6A008E038F04E54024FCF808E630E70FE540BF
:102D7A0024FCF8C3E496FE08E496FF800AE54024A2
:102D8A00FCF88606088607C005C006C0078B828C39
:102D9A0083122DBFAE82AF8315811581D005ED60F8
:102DAA000DC3E49EFCE49FFD8C828D8380048E8299
:102DBA008F83D04022C040858140AE82AF837D00A0
:102DCA007C00E54024FCF808E6235401FB702FE55B
:102DDA004024FCF8E626F608E633F6E54024FCF83B
:102DEA00C3EE96EF08965011E54024FCF808E61861
:102DFA00C313C613C608F680050C8C0580C4E540CB
:102E0A0024FCF8C3EE96EF0896400DE54024FCF842
:102E1A00EEC396FEEF0896FFE54024FCF808E61894
:102E2A00C313C613C608F68D041DEC70D18E828FAB
:042E3A0083D04022DF
:102E3E009001F4E0FF7E000FBF00010E7410C0E0A1
:102E4E00E4C0E08F828E83122D51AE8215811581E2
:102E5E009001F5E0FFEEB50701229001F4E0246C3D
:102E6E00F582E43401F583E599F09001F4EEF02259
:102E7E0030064A9001F6E0FF9001F7E0FEEFB5064E
:102E8E0005A206C206229001F7E0247CF582E43406
:102E9E0001F583E0F5999001F7E0FF7E000FBF008A
:102EAE00010E7410C0E0E4C0E08F828E83122D51AB
:0E2EBE00AE82AF83158115819001F7EEF022F0
:102ECC00FCABF0AA83A982749EC2D1F582121AC8F7
:032EDC00022BFEC8
:102EDF009001F8E0FF7E000FBF00010E7410C0E0FC
:102EEF00E4C0E08F828E83122D51AE821581158141
:102EFF009001F9E0FFEEB50701229001F8E0248C74
:102F0F00F582E43401F583E5C1F09001F8EEF0228B
:102F1F0030074A9001FAE0FF9001FBE0FEEFB506A3
:102F2F0005A207C207229001FBE0249CF582E4343E
:102F3F0001F583E0F5C19001FBE0FF7E000FBF00BC
:102F4F00010E7410C0E0E4C0E08F828E83122D5109
:0E2F5F00AE82AF83158115819001FBEEF0224A
:102F6D006040F82582500274FFF582E824F8501E67
:102F7D00CCCBCAF9E4CC24F85014CBCAF9E4CB2459
:102F8D00F8500BCAF9E4CA24F8500379002224083A
:102F9D006010F8C3EC13FCEB13FBEA13FAE913F919
:072FAD00D8F1227582002219
:102FB40030303030002D4F46460056302D3500302D
:102FC400303031000D0A0040572D52535423004035
:0F2FD400542D454E44230040502D2D4F4E2300C9
:102FE30000000000000000000000000000000001DD
:102FF30000000000000000000000000000000304C7
:1030030000000200000000000101010101010101B3
:103013000000020202020202020200000303030391
:103023000303030300000404040404040404000071
:10303300010204081020408000000102040810204F
:1030430040800000010204081020408000000102BB
:103053000408102040800000FFFFFFFFFFFFFFFF79
:10306300FFFFFF00FFFF0102FFFFFFFFFFFFFFFF67
:10307300FFFFFFFFFFFFFFFF03FFFFFFFFFFFFFF59
:1030830012011001EF020108091250C501010102EA
:103093000301090246000201008064080B000202DA
:1030A30002010409040000010202010405240010C6
:1030B3000104240202052406000107058103080018
:1030C3004009040100020A0000040705020240004F
:1030D3000007058202400000040309040C034300B7
:1030E30048003500350078001603430048003500DA
:1030F300350078006400750069006E006F001603E8
:10310300430044004300200053006500720069003F
:1031130061006C000E0344006500710069006E00DD
:02312300670043
:10312500511800000000000000000000030000002E
:10313500000000000000000000000000000000008A
:10314500000000000000000000000000000000007A
:073155000000000000000073
:04315C00651565157B
:0231600000006D
:0B31620000E100000000080000000079
:04316D00000000005E
:04317100000000005A
:00000001FF
