:0600000002006B0217274D
:03000B00021EF2E0
:0300130002177A57
:01001B0032B2
:0300230002168F33
:03002B0002276841
:01003300329A
:03003B000217CDDC
:0300430002165052
:01004B003282
:030053000216DBB7
:01005B003272
:030063000227660B
:030066000218215C
:02006900E4733E
:0D006B00758141122F92E58260030200664C
:100078007950E94400601B7A0190310778AC75A08B
:1000880001E493F2A308B8000205A0D9F4DAF275E6
:02009800A0FFC7
:06009A00E478FFF6D8FD3A
:1000A0007800E84400600A799475A000E4F309D868
:1000B000FC7818E84401600C7902900094E4F0A305
:0400C000D8FCD9FA95
:1000C4009000FCE4F09000FDF0A3F0900103E4F054
:1000D40090010AE4F0900111E4F0A3F0A3F0A3F07E
:0E00E4007808E4F608F608F608F6780C7600C0
:0200F200C20446
:0200F400C20642
:0200F600C2073F
:0300F8000200669D
:1000FC009001E27401F022E5829000EBF0E0FF2425
:10010C00FB4057EF2F9001157380088019802480D5
:10011C002F803A9001B7E4F09001B6F09001B5F061
:10012C009001B4F080469001B4E0FFB40100E433D8
:10013C00F080399001B5E0FFB40100E433F0802C7D
:10014C009001B6E0FFB40100E433F0801F9001B7DA
:10015C00E0FFB40100E433F080129001B77401F0B9
:10016C009001B6F09001B5F09001B4F09001B7E0B9
:10017C00900129F075821E121A239001B6E09001AD
:10018C0029F075821F121A239001B5E0900129F015
:10019C00758211121A239001B4E0900129F0758236
:1001AC0010021A2375A15575A1AA53B1FE75FF0053
:1001BC0075820012010390012CE4F5F0121FAF754B
:1001CC00820912010390012CE4F5F0121FAF758225
:1001DC000012010390012CE4F5F0121FAF75820997
:1001EC0012010390012CE4F5F0121FAF758200127E
:1001FC00010390012CE4F5F0121FAF75820112017E
:10020C00039001F4E4F5F0121FAF758202120103A2
:10021C009001F4E4F5F0121FAF7582031201039004
:10022C0001F4E4F5F0121FAF758204120103900182
:10023C00F4E4F5F0121FAF7582041201039001F47F
:10024C00E4F5F0121FAF7582031201039001F4E480
:10025C00F5F0121FAF7582021201039001F4E4F560
:10026C00F0121FAF7582011201039001F4E4F5F056
:10027C00121FAF75820012010390012CE4F5F012ED
:10028C001FAF121F72AC82AD83AEF0FF9001DEEC9B
:10029C00F0EDA3F0EEA3F0EFA3F075A15575A1AAB4
:1002AC0043B10175FF0022AF83E5829000ECF0EFC3
:1002BC00A3F09000ECE0C0E0A3E0C0E090003212AC
:1002CC0026C8AE82AF831581158174AC2EFE740DD9
:1002DC003FFF7D007C008E828F838DF0EC22758237
:1002EC000B121DFD122D28AC82AD83AEF0FFC004A5
:1002FC00C005C006C007902D2D75F08D74411215E8
:10030C00ADAC82AD83AEF0FFE58124FCF5818C822F
:10031C008D838EF0EF229000F6E4F0A3F0A3F0A30F
:10032C00F01202EAAC82AD83AEF0FF9000F2ECF07A
:10033C00EDA3F0EEA3F0EFA3F09000EEECF0EDA344
:10034C00F0EEA3F0EFA3F075100074F62510500337
:10035C000204371202EAAB82AC83ADF0FE9000EEE1
:10036C00E0F8A3E0F9A3E0FAA3E0FFC006C005C0E3
:10037C0004C003C003C004C005C006888289838AF8
:10038C00F0EF122698AF82E58124FCF581D003D0E2
:10039C0004D005D006EF600E9000EEEBF0ECA3F06D
:1003AC00EDA3F0EEA3F0C006C005C004C00390009E
:1003BC00F2E0C0E0A3E0C0E0A3E0C0E0A3E0C0E056
:1003CC008B828C838DF0EE122698AA82E58124FC18
:1003DC00F581D003D004D005D006EA600E9000F26F
:1003EC00EBF0ECA3F0EDA3F0EEA3F09000F6E0F848
:1003FC00A3E0F9A3E0FAA3E0FFC003C004C005C06A
:10040C0006888289838AF0EF12276AAC82AD83AEAC
:10041C00F0FFE58124FCF5819000F6ECF0EDA3F003
:10042C00EEA3F0EFA3F005100203569000EEE0FCF3
:10043C00A3E0FDA3E0FEA3E0FF9000F2E0C0E0A388
:10044C00E0C0E0A3E0C0E0A3E0C0E08C828D838E2E
:10045C00F0EF12276AAC82AD83AEF0FFE58124FC8D
:10046C00F5819000F6E0F8A3E0F9A3E0FAA3E0FB35
:10047C00C004C005C006C007888289838AF0EB12CD
:10048C00152AAC82AD83AEF0FFE58124FCF581909A
:10049C0000F6ECF0EDA3F0EEA3F0EFA3F09000F675
:1004AC00E0FCA3E0FDA3E0FEA3E0FFE4C0E0C0E0BD
:1004BC00C0E07441C0E08C828D838EF0EF122C4929
:1004CC00AC82AD83AEF0FFE58124FCF5818C828D8E
:1004DC00838EF0EF22120322AC82AD83AEF0FF7458
:1004EC0014C0E074AEC0E07487C0E0743FC0E08C10
:1004FC00828D838EF0EF1215ADAC82AD83AEF0FF22
:10050C00E58124FCF5818C828D838EF0EF227F00B7
:10051C00BF14005035EF75F004A42495FD7400351C
:10052C00F0FEC007C006C0051204E1A982AA83AB85
:10053C00F0FCD005D006D0078D828E83E9F0EAA3BB
:10054C00F0EBA3F0ECA3F00F80C622AF83E5829012
:10055C0000FAF0EFA3F09000FFE4F0A3F0A3F0A3F7
:10056C00F09000FAE0FEA3E0FFBE0310BF000D9078
:10057C0000FC7401F0900000E4F5F0229000FCE027
:10058C00600E9000FCE4F09000FDF0A3F012051A50
:10059C009000FDE0FEA3E0FFEE2EFEEF33FFEE2E0B
:1005AC00FEEF33FFEE2495FEEF3400FFC007C006CC
:1005BC001204E1AA82AB83ACF0FDD006D0078E8288
:1005CC008F83EAF0EBA3F0ECA3F0EDA3F09000FD29
:1005DC00E0FEA3E0FF0EBE00010F7414C0E0E4C007
:1005EC00E08E828F83122D33AE82AF8315811581FD
:1005FC009000FDEEF0EFA3F07F00BF14005060EF11
:10060C0075F004A42495F582740035F0F583E0F5BB
:10061C0011A3E0F512A3E0F513A3E0F5149000FF8D
:10062C00E0F8A3E0F9A3E0FAA3E0FEC007C011C014
:10063C0012C013C014888289838AF0EE12276AAB29
:10064C0082AC83ADF0FEE58124FCF581D0079000EF
:10065C00FFEBF0ECA3F0EDA3F0EEA3F00F809B907A
:10066C0000FFE0FCA3E0FDA3E0FEA3E0FFE4C0E09C
:10067C00C0E074A0C0E023C0E08C828D838EF0EFCC
:10068C00122C49AC82AD83AEF0FFE58124FCF581E0
:10069C008C828D838EF0EF2275820F1219D3AF826C
:1006AC009001B2EF24FFE433F075820E1219D3E5FA
:1006BC008224FFE433FF9001B3F0EF7065121F72D8
:1006CC00AC82AD83AEF0FF742C2CFC74013DFDE4C8
:1006DC003EFEE43FFFC007C006C005C004121F72F7
:1006EC00A882A983AAF0FBD004D005D006D007C3FA
:1006FC00E89CE99DEA9EEB9F502875820FC007C0CD
:10070C0006C005C0041219D3E582D004D005D0066A
:10071C00D00770C19001B2E4F090010304F0900096
:10072C000322900103E06011900103E4F09001B208
:10073C00F09001B3F0900003229001B2E0FFE06072
:10074C000A9001B3E0600490000022EF700A90015F
:10075C00B3E06004900001229001B2E0600A9001C5
:10076C00B3E070049000022290000322AF83E58274
:10077C00900108F0EFA3F090010AE0B40100E4331B
:10078C00F0900108E0FEA3E0FFBE0306BF000302E9
:10079C000892900104E0FAA3E0FBA3E0FCA3E0FDC7
:1007AC00C3743C9A740F9BE49CE49DE433F9F89079
:1007BC0001B7F0C374A69A740E9BE49CE49DE433D9
:1007CC00F5159001B6F0C374429A740E9BE49CE448
:1007DC009DE433F5169001B5F0C374DE9A740D9B4D
:1007EC00E49CE49DE433FD9001B4F0900129E8F021
:1007FC0075821EC007C006C005C001121A239001E5
:10080C00B6E0900129F075821F121A239001B5E011
:10081C00900129F0758211121A239001B4E0900115
:10082C0029F0758210121A23D001D005D006D007FA
:10083C00EE4F60030208D7E9601190010AE09001C5
:10084C0029F075821E121A230208D7E51560109044
:10085C00010AE0900129F075821F121A23806CE5C1
:10086C0016601090010AE0900129F0758211121A9D
:10087C00238058ED605590010AE0900129F07582B3
:10088C0010121A23804590010AE0900129F075821C
:10089C001E121A2390010AE0900129F075821012A1
:1008AC001A23900129E4F075821F121A2390012952
:1008BC00E4F0758211121A239001B47401F09001C6
:1008CC00B7F09001B5E4F09001B6F0900094E023FD
:1008DC00235403FFBF0235900064E4F5F0121FAF00
:1008EC00900129E4F075821E121A23900129E4F07C
:1008FC0075821F121A23900129E4F0758211121AC5
:10090C0023900129E4F0758210021A2322AF83E5AB
:10091C008290010FF0EFA3F0900111E0F5F0A3E04D
:10092C0042F0A3E042F0A3E045F0701C90010BE014
:10093C00FCA3E0FDA3E0FEA3E0FF900111ECF0EDC1
:10094C00A3F0EEA3F0EFA3F090010FE0FEA3E0FF05
:10095C00BE0005BF00028010BE0105BF0002803F33
:10096C00BE0273BF00708037900111E0FCA3E0FD64
:10097C00A3E0FEA3E0FF90010BE0F8A3E0F9A3E0F5
:10098C00FAA3E0FBC3E89CE99DEA9EEB9F505290D2
:10099C000111E8F0E9A3F0EAA3F0EBA3F080429098
:1009AC000111E0FCA3E0FDA3E0FEA3E0FF90010B2E
:1009BC00E0F8A3E0F9A3E0FAA3E0FBC3EC98ED990F
:1009CC00EE9AEF9B501B900111E8F0E9A3F0EAA31B
:1009DC00F0EBA3F0800B900111E4F0A3F0A3F0A3D3
:1009EC00F090010FE0FEA3E0FF900111E0FAA3E00C
:1009FC00FBA3E0FCA3E0FD900104EAF0EBA3F0EC18
:100A0C00A3F0EDA3F08E828F830207789001C2E4ED
:100A1C00F0A3F0A3F0A3F09001C6F0A3F0A3F0A311
:100A2C00F09001CAF0A3F0A3F0A3F09001CEF0A3D4
:100A3C00F0A3F0A3F09001D2F0A3F0A3F0A3F090F8
:100A4C0001D6F0A3F0A3F0A3F09001DAF0A3F0A389
:100A5C00F0A3F09001DEF0A3F0A3F0A3F02290013C
:100A6C00C2E0FCA3E0FDA3E0FEA3E0FF9001C2E026
:100A7C00F5F0A3E042F0A3E042F0A3E045F06061A2
:100A8C009001C6E0F8A3E0F9A3E0FAA3E0FB900123
:100A9C0015EC28F0ED39A3F0EE3AA3F0EF3BA3F000
:100AAC00121F72AC82AD83AEF0FF900115E0F8A37B
:100ABC00E0F9A3E0FAA3E0FBC3E89CE99DEA9EEB16
:100ACC009F501E121F72AC82AD83AEF0FF9001C618
:100ADC00ECF0EDA3F0EEA3F0EFA3F075824C120C4A
:100AEC008B9001CAE0FCA3E0FDA3E0FEA3E0FF9025
:100AFC0001CAE0F5F0A3E042F0A3E042F0A3E04528
:100B0C00F060619001CEE0F8A3E0F9A3E0FAA3E075
:100B1C00FB900115EC28F0ED39A3F0EE3AA3F0EFC1
:100B2C003BA3F0121F72AC82AD83AEF0FF900115A7
:100B3C00E0F8A3E0F9A3E0FAA3E0FBC3E89CE99D8D
:100B4C00EA9EEB9F501E121F72AC82AD83AEF0FF7B
:100B5C009001CEECF0EDA3F0EEA3F0EFA3F07582D4
:100B6C0056120C8B9001D2E0FCA3E0FDA3E0FEA397
:100B7C00E0FF9001D2E0F5F0A3E042F0A3E042F0F8
:100B8C00A3E045F060619001D6E0F8A3E0F9A3E0A2
:100B9C00FAA3E0FB900115EC28F0ED39A3F0EE3A46
:100BAC00A3F0EF3BA3F0121F72AC82AD83AEF0FF4B
:100BBC00900115E0F8A3E0F9A3E0FAA3E0FBC3E889
:100BCC009CE99DEA9EEB9F501E121F72AC82AD8376
:100BDC00AEF0FF9001D6ECF0EDA3F0EEA3F0EFA396
:100BEC00F0758243120C8B9001DAE0F5F0A3E04231
:100BFC00F0A3E042F0A3E045F07001229001E2E0A6
:100C0C00601D9001E2E4F0121F72AC82AD83AEF075
:100C1C00FF9001DEECF0EDA3F0EEA3F0EFA3F0906B
:100C2C0001DEE0FCA3E0FDA3E0FEA3E0FF9001DA0F
:100C3C00E0F8A3E0F9A3E0FAA3E0FB900115E82C9F
:100C4C00F0E93DA3F0EA3EA3F0EB3FA3F0121F72D4
:100C5C00AC82AD83AEF0FF900115E0F8A3E0F9A3F0
:100C6C00E0FAA3E0FBC3E89CE99DEA9EEB9F500EE3
:100C7C009001DAE4F0A3F0A3F0A3F002110122E555
:100C8C0082900119F07582401228E4900119E0FF5E
:100C9C00F582C0071228E4D007BF4203020E3EBF04
:100CAC004303020D7EBF4603020DFABF4C028020A7
:100CBC00BF4F03020E05BF5003020DEEBF520302DD
:100CCC000E3EBF56028058BF5703020DB3020E6E84
:100CDC009001B7E0FF3395E0FEFD8F828E838DF09F
:100CEC001218639001B6E0FF3395E0FEFD8F828E03
:100CFC00838DF01218639001B5E0FF3395E0FEFD93
:100D0C008F828E838DF01218639001B4E0FF3395BF
:100D1C00E0FEFD8F828E838DF0121863020E6E90B2
:100D2C0001B8E0FEA3E0FFBE0305BF0002803790D0
:100D3C0001BEE0FCA3E0FDA3E0FEA3E0FFC3EC9446
:100D4C0010ED9427EE9400EF9400501AC374E79CB6
:100D5C0074039DE49EE49F500D8C828D838EF0EF86
:100D6C001218A3020E6E902F9675F0801218E302E3
:100D7C000E6E7582461228E49001B3E0FF3395E0C5
:100D8C00FEFD8F828E838DF01218637582431228BC
:100D9C00E49001B2E0FF3395E0FEFD8F828E838DEF
:100DAC00F0121863020E6E9001DAE0FCA3E0FDA3D2
:100DBC00E0FEA3E0FF9001DAE0F5F0A3E042F0A33F
:100DCC00E042F0A3E045F0600D8C828D838EF0EF55
:100DDC001218A3020E6E902F9675F0801218E30273
:100DEC000E6E902F9B75F0801218E3020E6E902FF2
:100DFC00A075F0801218E380699001AEE0FCA3E0CE
:100E0C00FDA3E0FEA3E0FF9001AEE0F5F0A3E0420D
:100E1C00F0A3E042F0A3E045F0600C8C828D838E51
:100E2C00F0EF1218A3803B902F9675F0801218E308
:100E3C008030900119E0FFBF52067E217F008004B4
:100E4C007E227F008E821219D3E58260067EA57FFA
:100E5C002F80047E967F2F7D808E828F838DF01263
:100E6C0018E37582231228E4902FAA75F0800218DB
:100E7C00E31229EBE5827001229000E6E09000E598
:100E8C00F09000E7E09000E6F09000E8E09000E7DA
:100E9C00F01229F2AF829000E8EFF09000E5E0FF4D
:100EAC00BF40028001229000E8E0FFBF23028001D6
:100EBC00229000E6E0FF9000E7E0FE24C69200409E
:100ECC002FBE3000920140288E047D00EC24D0FC13
:100EDC00ED34FFFDC007C006C004C0059003E81246
:100EEC0026C8AC82AD8315811581D006D00780044D
:100EFC007C007D008C02EDFB3395E0FCFDC007C04F
:100F0C0006C005C004C003C002121F72858217857B
:100F1C00831885F019F51AD002D003D004D005D06F
:100F2C0006D007BF42030210ACBF4303020FB7BF8A
:100F3C0046030210FCBF4C02802BBF4F0302104132
:100F4C00BF5003021021BF52030210ACBF54030266
:100F5C00109ABF56028031BF57028072BF580302ED
:100F6C0010860210FB9001C2EAF0EBA3F0ECA3F0A8
:100F7C00EDA3F09001C6E517F0E518A3F0E519A371
:100F8C00F0E51AA3F00210FC9001CAEAF0EBA3F012
:100F9C00ECA3F0EDA3F09001CEE517F0E518A3F06B
:100FAC00E519A3F0E51AA3F00210FC9001D2EAF0C7
:100FBC00EBA3F0ECA3F0EDA3F09001D6E517F0E570
:100FCC0018A3F0E519A3F0E51AA3F00210FC9000A9
:100FDC0094E023235403F9B901239001DAEAF0EBEE
:100FEC00A3F0ECA3F0EDA3F09001DEE517F0E5180B
:100FFC00A3F0E519A3F0E51AA3F00210FC9001DAB6
:10100C00E4F0A3F0A3F0A3F09001DEF0A3F0A3F0C2
:10101C00A3F00210FCC007120A18D007900094E04D
:10102C00543F4480F0900094E054DFF0900094E042
:10103C00F5FE0210FC200034EE24CF502F8E047DE0
:10104C0000EC24D0FCED34FFFD8C828D83C00712A4
:10105C0002B3AA82AB83ACF0FDD0079001AEEAF0EC
:10106C00EBA3F0ECA3F0EDA3F00210FC9001AEE4C6
:10107C00F0A3F0A3F0A3F00210FC902FAD75F0805C
:10108C001218E39028E4121BE51228BB80FE120113
:10109C00B0902FB575F0801218E39028E4021BE590
:1010AC00BF52067C217D0080047C227D00900128AB
:1010BC007401F08C82C007C006C00412191CD00445
:1010CC00D006D007BE30028005BE312480109001BE
:1010DC0029E4F08C82C007121A23D00780129001E9
:1010EC00297401F08C82C007121A23D007800122C8
:1010FC008F82020C8B9001287401F07582211219D9
:10110C001C900129E4F0758221121A23900064E4EA
:10111C00F5F0121FAF9001297401F0758221121A9B
:10112C0023900064E4F5F0121FAF900129E4F075F0
:10113C008221121A23900128E4F075822102191CD5
:10114C00E58290011AF0E060589001287401F07566
:10115C00822212191C900129E4F0758222121A23A2
:10116C00900064E4F5F0121FAF9001297401F07542
:10117C008222121A23900064E4F5F0121FAF900142
:10118C0029E4F0758222121A23900128E4F075826A
:10119C002212191C900128E4F075822112191C806E
:1011AC00429001287401F075822212191C900128BA
:1011BC007401F075822112191C9001297401F075CB
:1011CC008221121A23900064E4F5F0121FAF9001F3
:1011DC00297401F0758222121A23900064E4F5F050
:1011EC00121FAF900094E0F5FE0228BBAF83E5829E
:1011FC0090011FF0EFA3F0900121E4F090011BE0AF
:10120C00FCA3E0FDA3E0FEA3E0FFC374489C740DB7
:10121C009DE49EE49F40030212CC900094E02323B3
:10122C005403FB6008BB0202800902130B900121DE
:10123C007401F090011FE0F5F0A3E045F070079009
:10124C000094E04420F0900094E030E51C90011FE5
:10125C00E0FAA3E0FBBA0105BB00028006BA020962
:10126C00BB00069001217401F0900121E0604690D2
:10127C0001AEE0F8A3E0F9A3E0FAA3E0FBC3E89C1D
:10128C00E99DEA9EEB9F400302130B900094E054FF
:10129C003F4440F0900094E054DFF075820112114D
:1012AC004C12051A902FBD75F0801218E39028E4AB
:1012BC00121BE5804A900094E0543F4480F0803F3C
:1012CC0090011FE0FEA3E0FFBE0305BF00028018E3
:1012DC00900094E0543F4480F0900094E04410F06F
:1012EC0075820012114C8017900094E054C0700F5E
:1012FC00900094E0543F4440F075820112114C90E0
:10130C000094E0F5FE22900128E4F075820B12198E
:10131C001C9001287402F075820F12191C90012880
:10132C007402F075820E12191C9001B2E4F0900157
:10133C00B3F0900128F075822212191C900128E458
:10134C00F075822112191C900128E4F0758220128C
:10135C00191C9001B7E4F09001B6F09001B5F09033
:10136C0001B4F090012804F075821E12191C900132
:10137C00B7E0900129F075821E121A23900128748F
:10138C0001F075821F12191C9001B6E0900129F032
:10139C0075821F121A239001287401F075821112A4
:1013AC00191C9001B5E0900129F0758211121A23D5
:1013BC009001287401F075821012191C9001B4E090
:1013CC00900129F0758210021A231213121228BBF5
:1013DC00900094E5FEF0E07018900094E0543FF01B
:1013EC009001AEE4F0A3F0A3F0A3F075820012110B
:1013FC004C900094E0F5FE90012274FCF07400A374
:10140C00F09001247401F0758200121536120A183E
:10141C0012051A75A15575A1AA43B10175FF0022D9
:10142C0075FF009001BAE0FCA3E0FDA3E0FEA3E091
:10143C00FF74F42CFC74013DFDE43EFEE43FFFC060
:10144C0007C006C005C004121F72A882A983AAF0A7
:10145C00FBD004D005D006D007C3EC98ED99EE9ADA
:10146C00EF9B40030215241206A4AE82AF839001B9
:10147C00B8EEF0EFA3F08E828F83120557121EB9CF
:10148C00AC82AD83AEF0FF9001BEECF0EDA3F0EEBC
:10149C00A3F0EFA3F09001B8E0FAA3E0FB90011BDE
:1014AC00ECF0EDA3F0EEA3F0EFA3F08A828B8312A5
:1014BC0011F89001B8E0FEA3E0FF9001BEE0FAA3A2
:1014CC00E0FBA3E0FCA3E0FD90010BEAF0EBA3F042
:1014DC00ECA3F0EDA3F08E828F83120919120A6A25
:1014EC00121F72AC82AD83AEF0FF9001BAECF0ED3E
:1014FC00A3F0EEA3F0EFA3F0900094E023235403A9
:10150C00FBBB02149001BA74DC2CF074053DA3F003
:0E151C00E43EA3F0E43FA3F0120E7D0228BBD4
:10152A00A8811818C6B2E7C602276A22AF82BF028C
:10153A0000503EEF75F002A424E3FD740135F0FE7D
:10154A00900122E0FBA3E0FC8D828E83EBF0ECA3FA
:10155A00F0BF00028005BF0118800B900124E0242F
:10156A00FF9288D2A822900124E0FF24FF928AD217
:10157A00AA22AF82BF02005028BF00028005BF0125
:10158A00088004C2A88002C2AAEF75F002A424E36C
:10159A00FE740135F0FF8E828F837435F07415A3C3
:0215AA00F0222D
:1015AD00121834BC0003022C01EF60FA30D502B2E0
:1015BD00D1E583B4FF03022C17E582B4FF03022C9F
:1015CD0017258340072482400B022C0124831450DD
:1015DD0003022C17F582EA8DF0A4A8F0EA8EF0A490
:1015ED0028F8E435F0F9EB8DF0A428E935F0F9E4AD
:1015FD0033CA8FF0A429F9EA35F0FAEBF88EF0A48E
:10160D0029F9EA35F0FAE433FBEC8DF0A429F9EA77
:10161D0035F0FAE43BFBE88FF0A42AFAEB35F0FB4A
:10162D00E433CCFD8EF0A42AFAEB35F0FBE43CFC60
:10163D00ED8FF0A42BFBEC35F0FC20E703121A988C
:03164D00022BE08D
:10165000C021C0E0C0F0C082C083C007C006C00582
:10166000C004C003C002C001C000C0D075D00012C9
:101670002571D0D0D000D001D002D003D004D00545
:10168000D006D007D083D082D0F0D0E0D02132C0B5
:1016900021C0E0C0F0C082C083C007C006C005C042
:1016A00004C003C002C001C000C0D075D000309893
:1016B00005122E20C298309905122E60C299D0D002
:1016C000D000D001D002D003D004D005D006D0077E
:1016D000D083D082D0F0D0E0D02132C021C0E0C091
:1016E000F0C082C083C007C006C005C004C003C0EC
:1016F00002C001C000C0D075D00030C005122EC19C
:10170000C2C030C105122F01C2C1D0D0D000D0015B
:10171000D002D003D004D005D006D007D083D08229
:10172000D0F0D0E0D02132C021C0E0C0F0C082C0F3
:1017300083C007C006C005C004C003C002C001C00A
:1017400000C0D075D0009001E3E0FEA3E0FFC00729
:10175000C0068E828F83120069D006D007D0D0D009
:1017600000D001D002D003D004D005D006D007D0DD
:1017700083D082D0F0D0E0D02132C021C0E0C0F0D0
:10178000C082C083C007C006C005C004C003C00239
:10179000C001C000C0D075D0009001E5E0FEA3E01C
:1017A000FFC007C0068E828F83120069D006D00763
:1017B000D0D0D000D001D002D003D004D005D006C4
:1017C000D007D083D082D0F0D0E0D02132C021C069
:1017D000E0C0F0C082C083C007C006C005C004C01E
:1017E00003C002C001C000C0D075D0009001E7E086
:1017F000FEA3E04E600E9001E7E0F8A3E0F58388D9
:1018000082120069D0D0D000D001D002D003D00421
:10181000D005D006D007D083D082D0F0D0E0D02140
:101820003212209B1213D612142C1228BB80F8758A
:0318300082002211
:10183400AA82AB83A2F73392D1F5826002D2F7ACCD
:10184400F0E58124F9F8E6FD08E6FE0886F008E6EE
:0E185400A2F73392D5F5836002D2F7AFF022EF
:1018620022AC82AD83AEF0FF900135ECF0EDA3F037
:10187200EEA3F0EFA3F09028E4021BB8AC82AD8394
:10188200AEF0FF900125E0FB90015FECF0EDA3F0DC
:10189200EEA3F0EFA3F0900163EBF09028E4021DB9
:1018A20005AC82AD83AEF0FF900131ECF0EDA3F018
:1018B200EEA3F0EFA3F09028E4021B8BAC82AD8381
:1018C200AEF0FF900126E0FB90015FECF0EDA3F09B
:1018D200EEA3F0EFA3F0900163EBF09028E4021D79
:1018E20005AD82AE83AFF090012EEDF0EEA3F0EFE6
:1018F200A3F09028E4021B29AD82AE83AFF09001E1
:1019020027E0FC90012AEDF0EEA3F0EFA3F09001A6
:091912002DECF09028E4021ACB40
:10191C00E582FF90301593FEEF902FED93FF700151
:10192C0022900128E0FD701BBF0209EEF4FC5292DC
:10193C00EC529322BF0402800122EEF4FC5296EC8E
:10194C00529722BD0214BF0207EE4292EE4293223E
:10195C00BF0439EE4296EE429722BD0116BF020833
:10196C00EEF45292EE429322BF0421EEF45296EE24
:10197C00429722BD0316BF0208EE4292EEF4529338
:10198C0022BF0408EE4296EEF4FE529722AF82BFBD
:10199C000102800FBF02028013BF03028017BF0435
:1019AC0025801BE5C620E21E539DFB22E5C620E3E5
:1019BC0015539DF722E5C630E20C539DFB22E5C67C
:1019CC0030E303539DF722E582FF902FC593FEEF82
:1019DC0090301593FDEF902FED93FF7003F582225D
:1019EC00EE600D8E82C007C005121999D005D00784
:1019FC007E00BF0202800ABF03028009BF040C8074
:101A0C0008AE908006AEA08002AEB0ED5E600475AC
:101A1C0082012275820022E582FF902FC593FEEF92
:101A2C0090301593FDEF902FED93FFEE600D8E82AD
:101A3C00C007C005121999D005D007A2AFE433FE38
:101A4C00C2AFBF0202800ABF03028017BF043680F8
:101A5C0024900129E07007EDF4FF52908027ED42AD
:101A6C00908022900129E07007EDF4FF52A08015C0
:101A7C00ED42A08010900129E07007EDF4FF52B008
:0B1A8C008003ED42B0EE6002D2AF22FA
:101A98007804EC7011E58224F8500AF582E4C9CA8A
:101AA800CBFCD8EF22EC7820058220E713D5820101
:101AB80022C3E933F9EA33FAEB33FBEC33FCD8EA17
:101AC800158222AE82AF8390012AE0FBA3E0FCA33B
:101AD800E0FD7A0090012DE0F9890019E8603F8B5C
:101AE800828C838DF0122D0CF8A3AB82AC83C007D7
:101AF800C006C005C004C003C002C001121B098093
:101B080007C006C007888222A882D001D002D0036D
:101B1800D004D005D006D007E860030A80BB8A82CB
:101B280022AE82AF8390012EE0FBA3E0FCA3E0FD90
:101B380090012EE0F5F0A3E045F07003F582227ADB
:101B4800008B828C838DF0122D0CF9A3AB82AC83B1
:101B5800E9F8602CC007C006C005C004C003C00275
:101B6800121B6D8007C006C007888222A982D00296
:101B7800D003D004D005D006D007E960030A80C19D
:101B88008A8222AE82AF83900131E0FAA3E0FBA300
:101B9800E0FCA3E0FD900139EAF0EBA3F0ECA3F040
:101BA800EDA3F090013D740AF08E828F83021C1C15
:101BB800AE82AF83900135E0FAA3E0FBA3E0FCA37B
:101BC800E0FD90015FEAF0EBA3F0ECA3F0EDA3F0E9
:101BD800900163740AF08E828F83021D05AE82AF76
:101BE80083C007C006121BF28008C006C0077582B2
:101BF8000D22AD82D006D007C007C005121C09808F
:101C080008C006C00775820A22AE82D005D007EE4A
:101C18002DF5822285822285832390015EE4F0904F
:101C2800013DE0FDBD0200500690013D740AF090B0
:101C3800013DE0F5247B5E7C01900139E0F525A3A8
:101C4800E0F526A3E0F527A3E0F528852429752AE1
:101C580000752B00752C00C004C003C029C02AC021
:101C68002BC02C8525828526838527F0E528122A16
:101C780094A882E58124FCF581C000C029C02AC04F
:101C88002BC02C8525828526838527F0E528122BF5
:101C980056AA82AD83AEF0FFE58124FCF581D00021
:101CA800D003D004900139EAF0EDA3F0EEA3F0EFF1
:101CB800A3F01BBBFF011C8B068C07B80A00500859
:101CC800880574302DFD8004743728FD8E828F833B
:101CD800EDF0900139E0F5F0A3E042F0A3E042F026
:101CE800A3E045F06003021C4190012EEBF0ECA349
:101CF800F0E4A3F0852282852383021B2985822DA7
:101D080085832E900163E0FD701B90015FE0F9A3CD
:101D1800E0FAA3E0FBA3E0FC121D258007C02DC05C
:101D28002E89822222BD0A028003021DD290015F01
:101D3800E0F9A3E0FAA3E0FBA3E0FC30E76FC004FE
:101D4800C003C002C001121D538008C02DC02E75EB
:101D5800822D22A882D001D002D003D004882F90EF
:101D6800015FC3E499F0E49AA3F0E49BA3F0E49C38
:101D7800A3F090015FE0F530A3E0F531A3E0F53280
:101D8800A3E0F533900139E530F0E531A3F0E53211
:101D9800A3F0E533A3F090013D740AF0852D828508
:101DA8002E83121C1CAF82E52F2FF5822290013959
:101DB800E9F0EAA3F0EBA3F0ECA3F090013D740A7C
:101DC800F0852D82852E83021C1C90015FE0FBA309
:101DD800E0FCA3E0FEA3E0FF900139EBF0ECA3F0F8
:101DE800EEA3F0EFA3F090013DEDF0852D82852E56
:041DF80083021C1C2A
:101DFD00E58290303D93FFBFFF0475820022759AF6
:101E0D000974FC5580FE74035F4EF580D2842084E6
:101E1D00FD859F8222AF829001287401F08F82C0D0
:101E2D000712191CD007900164E0FDA3E0FE4D7070
:101E3D000A900129E4F08F82021A238D038E047417
:101E4D00FF2C500B9001297401F08F82021A23EFA1
:101E5D00902FC593FA24FB4034EA2A901E6C7380B0
:101E6D002C8006800D8014801B53C6FB439D048D72
:101E7D009C2253C6F7439D088D9B2243C604439D68
:101E8D00048D9C2243C608439D088D9B22C3EB9471
:101E9D0080EC9400500A900129E4F08F82021A23FD
:0B1EAD009001297401F08F82021A23BB
:101EB9007F9E121EE030D103022C01C3EF958250A0
:101EC9000974FFF5F0F583F582227900122F4F8905
:101ED900828A838BF0EC22AA82AB83A2F73392D158
:101EE900F5826002D2F7ACF022C0D075D00808B8EC
:101EF900000D09B900090ABA00050BBB00010CD095
:101F0900D032A2AFC2AFA808A909AA0AAB0BAC8A02
:101F19008588F092AF30F51274012C600D08B80075
:101F29000909B900050ABA00010BC3EC9406FCECD7
:101F3900C313FC75F07DE8A4F8ADF075F07DE9A454
:101F49002DF9E435F0FD75F07DEAA42DFAE435F0BC
:101F5900FD75F07DEBA42DFB7D00EC28F582E93DB4
:101F6900F583EA3DF5F0EB3D22A2AFC2AFA808A97F
:101F790009AA0AAB0BAC0C92AF75F020E8A4A8F043
:101F890075F020E9A428F582A8F075F020EAA428C4
:101F9900F583A8F075F020EBA428F9A8F075F020D6
:101FA900ECA42889F02285823485833585F036F5BD
:101FB90037121F0B85823885833985F03AF53BE561
:101FC90034453545364537700122A834A935AA3636
:101FD900AB3785383C85393D853A3E853B3FE849F5
:101FE9004A4B60DBC003C002C001C000121F0BAC2A
:101FF90082AD83AEF0FFD000D001D002D003ECC394
:10200900953CFCED953DFDEE953EFEEF953FFFC3FA
:10201900EC94E8ED9403EE9400EF940040A118B815
:10202900FF0919B9FF051ABAFF011B883489358AD6
:10203900368B3774E8253CF53C7403353DF53DE4B2
:10204900353EF53EE4353FF53F853C38853D3985DC
:102059003E3A853F3B8087AE82AF83C374019EE4DD
:102069009F40022200C374029EFE74009FFF00BEBF
:102079000005BF000200220000000000000000006F
:1020890000000000000000000EBE00EB0FBF00EDD5
:10209900002275A15575A1AA74F855B94406F5B978
:1020A90075A100901388122060122646122670121C
:1020B900265F75DD0075D30075D500759E5D759D2C
:1020C9000074F055894402F58953C9EF758C06C22D
:0820D9008DD2A9D28CD2AF22F6
:1020E200AFDBBF080280030224B5900007E0FE7F49
:1020F20000900006E0FD7C004FF51BEC4EF51C7FC6
:1021020000900001E0F51D900000E0FE5460605375
:10211200900000E0FE5306607D00BE2005BD000277
:10212200800BBE4039BD00367FFF0224B77420B554
:102132001D030224B77421B51D0280077422B51D48
:1021420018800C122810AD82AE838D070224B7C00E
:102152000712283FD0070224B77FFF0224B77FFF70
:102162000224B7E51D24F450030224B1E51D240B1B
:1021720083F582E51D241083F583E47393C1B18155
:10218200B18B96B198B5B7B72422242324222124F7
:1021920022222424900003E0FEBE0102800ABE0235
:1021A20002800FBE03738014751E65751F307F1287
:1021B2008069751E77751F307F46805F900002E050
:1021C2007008751EBD751F308044900002E0FEBE8F
:1021D2000108751EF9751F308034900002E0FEBEC2
:1021E2000208751ECD751F308024900002E0FEBEED
:1021F2000308751EC1751F308014900002E0FEBEF8
:102202000408751EE3751F3080047FFF800D851E54
:1022120082851F83E493FF80027FFFBFFF030224B6
:10222200B78F057E00C3ED951BEE951C50048D1BE8
:102232008E1CAD1BAE1CC3ED9408EE9400920240BE
:10224200067B087C008004AB1BAC1C8B077C00C3A4
:10225200EC9F50198C027B00EC251EF582E4351FA1
:10226200F583E493F98A828B83F00C80E28F037CFE
:1022720000EDC39BFDEE9CFE8D1B8E1CEF251EF513
:102282001EE4351FF51F0224B7900002E0FE8E1BEC
:10229200751C000224B7900166E0900000F0AD1BAF
:1022A200AE1CC3ED9401EE940050030224B77F01EB
:1022B2000224B7900002E0FE900166F00224B7907B
:1022C2000000E0541F702F900003E0FD7E0090009C
:1022D20002E0FC7B004206EB4205BE0114BD001188
:1022E20090307EE493FE30E5030224B77FFF0224A0
:1022F200B77FFF0224B7900000E0FE53061F7D0067
:10230200BE0277BD0074900004E0FEBE0102805F51
:10231200BE02028049BE03028033BE0402801DBE9B
:1023220081028040BE8202802ABE83028014BE8463
:102332004474BC55DE4402F5DE0224B753DE730258
:1023420024B774BC55D64402F5D60224B753D673CB
:102352000224B774BC55D44402F5D40224B753D432
:10236200730224B774BC55D24402F5D20224B75387
:10237200D2730224B77FFF0224B77FFF0224B790F3
:102382000000E0541F702F900003E0FD7E009000DB
:1023920002E0FC7B004206EB4205BE0114BD0011C7
:1023A20090307EE493FE30E5030224B77FFF0224DF
:1023B200B77FFF0224B7900000E0FE53061F7D00A6
:1023C200BE0205BD0002800302248F900003E0FDDF
:1023D2007E00900002E0FC7B004206EB4205EE4DDF
:1023E200600302248B900005E0FD7E00900004E073
:1023F200FC7B004206EB4205BE0106BD000302243F
:102402007FBE0205BD00028060BE0305BD000280E2
:1024120044BE0405BD00028028BE8105BD000280C5
:1024220052BE8205BD00028036BE8305BD00028019
:102432001ABE8451BD004E74BF55DE4403F5DE80E2
:1024420074747F55DE440CF5DE806A74BF55D64441
:1024520003F5D68060747F55D6440CF5D680567449
:10246200BF55D44403F5D4804C747F55D4440CF545
:10247200D4804274BF55D24403F5D28038747F555C
:10248200D2440CF5D27FFF802C7FFF80287FFF8013
:1024920024900000E4F0900001F0AD1BAE1CC3EDEF
:1024A2009402EE940040047F02800AAF1B80067FF4
:1024B200FF80027FFFBFFF07751DFF75DCCF22EF94
:1024C20024F740068FDD75DCC02275DD0075DCC0A7
:1024D200227405B51D02805D7406B51D66AE1BAF84
:1024E2001CC3EE9408EF9400920340067C087D0022
:1024F2008004AC1BAD1C7D00C3ED9C50198D027B8A
:1025020000ED251EF582E4351FF583E493F98A82F6
:102512008B83F00D80E28C037D00EEC39BFEEF9D6A
:10252200FF8E1B8F1CEC251EF51EE4351FF51F8C3C
:10253200DD63DC4022E5E35480FFE51B4FF5E375E4
:10254200DC022275DD0075DC02227420B51D0D301F
:10255200DE101227CB75DD0085DCDC2275DD004341
:10256200DC022275D30074FC55D24402F5D222203B
:10257200D90302261CE5D9540FFFADD95305307E8D
:1025820000BD0005BE0002801CBD1005BE00028019
:1025920036BD2005BE00028043BD3006BE000302E8
:1025A200260202261AEF24FB500302261AEF2F906E
:1025B20025B573800880618009805D805B12254C9F
:1025C2008056122A2D8051EF24FB404CEF2F90258C
:1025D200D473804480428040803E803CEF24FB40A4
:1025E20037EF2F9025E9738008800B800E802980B9
:1025F200271224D38022122565801D122A1F8018DB
:10260200EF24FB4013EF2F90260D73800880098082
:1026120007800580031220E2C2D930D81A75DC0285
:1026220075D21275D41275E300C2DAC2D9C2D8903B
:102632000166E4F01227C310DA0122E5DA20E20390
:1026420075D8FF2275E20053E27F43E22975E30069
:1026520053E2BF53D1FB75D18043D1012243E10440
:1026620043E10243E10143D81FD2EAD2AF227E0006
:102672007F008EEC8FED7E0A7F008EEE8FEF7E1450
:102682007F008EE48FE575EB0C75D21275D412754E
:06269200EA4075DC0222A3
:10269800FFA8811818122A69D2D133E6400730E71B
:1026A8000B7582002220E70675820122C2D1122A08
:1026B8004BE97003F5822220D101B3E433F582227D
:1026C800C040858140C082C083E5812405F581AF83
:1026D800400FE5402403F8A607087600087640E591
:1026E8004024FCFD7E007F40E5402406F9A8400810
:1026F8008604E54024FCF886038CF0EBA4F709A7D0
:10270800F0E540240604F98704A84008860374010C
:102718002DFAE43EFE8A828E838FF0122D0C8BF008
:10272800A4FBE5402403F8740126FDE40836FE08FE
:1027380086078D828E838FF0122D0CFDE54024FCD8
:10274800F886078DF0EFA42B2CF7E5402406F987CF
:0F275800060987078E828F83854081D040223209
:01276800323E
:10276A001218347900E583B58202800D5003122CC9
:10277A002FE583C39582122F4FE5D0C465D020E19F
:10278A0017EA2DFAEB3EFBEC3FFC50097401122FBD
:10279A004FEC4480FC022BE0C3EA9DFAEB9EFBEC73
:1027AA009FFC500FC3E499F9E49AFAE49BFBE49C7A
:0927BA00FCB2D1121A98022BE0C6
:1027C3009001F0E4F0C204227F00C3E5DB9407929A
:1027D3000540067D077E008004ADDB7E008F037C11
:1027E30000C3EB9DEC64808EF063F08095F0501C89
:1027F300EF24E9FDE43401FEEF2400F582E4340024
:10280300F583E0FC8D828E83F00F80BE227F008FE4
:10281300057E00C3ED9407EE9400501CEF2400FDE9
:10282300E43400FEEF24E9F582E43401F583E0FCAF
:102833008D828E83F00F80D790000722900002E0F4
:10284300FF9001F2F0E020E0339001E9E0FCA3E027
:10285300FDA3E0FEA3E0FFBCB022BD041FBE001C2D
:10286300BF001975E200C2AF75890090C3501220F2
:102873006090C35012206012380080FE227E007FD9
:10288300003004200EBE00010F900005C007C006F3
:10289300122060D006D007C3EE9450EF94C340E1FA
:1028A30075820022758201227541009001F2E06079
:1028B30003754101854182222004259001F3E0FF45
:1028C300601E8FD553D4FCD204BF400F122880E57D
:1028D30082600875D50053D4FCD2049001F3E4F070
:1028E30022AF829001F2E06041C007122880E582A6
:1028F300D0077003F582229001F3E0FEBE40005042
:10290300207D0074402EFEE43DFDEE2414F582ED9F
:102913003400F583EFF09001F3E02401F0758201B8
:1029230022C0071228BBD00780BF75820022AFF0F8
:10293300AE83E582900169F0EEA3F0EFA3F090017E
:10294300F2E070030229E7900167E0FEA3E0FFC312
:10295300E49E74808FF063F08095F040030229E7D2
:10296300C007C006122880E582D006D0077003F5A1
:102973008222900169E0FBA3E0FCA3E0FDC3E49E97
:1029830074808FF063F08095F050BC9001F3E0FA0F
:10299300BA400050498A017A00744029F9E43AFAAE
:1029A300E92414F9EA3400FA8B828C838DF0122D1A
:1029B3000CF8A3AB82AC83900169EBF0ECA3F0EDD0
:1029C300A3F089828A83E8F09001F3E02401F01EEA
:1029D300BEFF011F900167EEF0EFA3F0809F122866
:1029E300BB02294A758200229001F0E0F582229011
:1029F30001F0E07003F582229001F1E02414F582E6
:102A0300E43400F583E0FF9001F1E004F09001F07D
:102A1300E014F0E0700353D4F38F822275D5007471
:102A2300FC55D44402F5D4C2042230DE199001F0DF
:102A3300E5DBF09001F1E4F09001F0E0600874F35D
:072A430055D44408F5D4222C
:102A4B007901AA82E68F82B5821318E6B5F00E18CB
:102A5B00E6B5830918E68A82B58202790022B48032
:102A6B000FE5F0700AE5837006E58270027F00EFD8
:102A7B00B6801518B6001018B6000B18B60006086D
:102A8B00080876002208080822C040858140AC82E5
:102A9B00AD83AEF0FF05817B00A840087600E540D2
:102AAB0024FAF8080808E6235401FA704CE5402490
:102ABB00FAF8E626F608E633F608E633F608E633C8
:102ACB00F6E54024FAF8C3EC96ED0896EE0896EF7F
:102ADB000896501AE54024FAF8080808E6C313F6DE
:102AEB0018E613F618E613F618E613F6800BA84053
:102AFB000806A84008860380A5E54024FAF8C3EC35
:102B0B0096ED0896EE0896EF08964015E54024FAE8
:102B1B00F8ECC396FCED0896FDEE0896FEEF0896D2
:102B2B00FFE54024FAF8080808E6C313F618E61385
:102B3B00F618E613F618E613F68B021BEA70BA8C3E
:102B4B00828D838EF0EF1581D04022C0408581406D
:102B5B00C082C083C0F0C0E07A007B007E007F00A3
:102B6B007D20A84008080808E6235401FCA840086B
:102B7B00E626F608E633F608E633F608E633F6EA19
:102B8B002AFAEB33FBEE33FEEF33FFEC6003430229
:102B9B0001E54024FAF8C3EA96EB0896EE0896EFA7
:102BAB000896401CE54024FAF8EAC396FAEB08961F
:102BBB00FBEE0896FEEF0896FFA84008E64401F6E8
:102BCB00DDA0A8400886820886830886F008E68583
:052BDB004081D0402202
:102BE000B98003EA13B34010EA2401FAE43BFBE4A2
:102BF0003CFC50047C800582BC000EBB000BBA007C
:102C000008E4F5F0F583F58222A2D1E582138CF079
:102C100092F78B838A8222E4F583F58275F080F443
:102C2000A2D11322E4F583F58275F0C0747F22E50A
:102C300082C583F582A2D133A2D592D11392D5EC6D
:102C4000CFFCEBCEFBEACDFA2212183430D502B21B
:102C5000D1BF0009BC0003022C24022C17BC0003C6
:102C6000022C01E583B4FF0BE582B4FF03022C24A0
:102C7000022C01E582B4FF03022C17C39583500791
:102C8000247F400B022C012480145003022C17F5E2
:102C900082C3ED9AEE9BEF9C40111582C3EA33F993
:102CA000EB33FAEC33FBE433FC8005E4CCCBCAF91C
:102CB000C08275F019C3E99DEA9EEB9FEC9400D5A4
:102CC000F002802D400EE99DF9EA9EFAEB9FFBECA5
:102CD0009400FCC3B3E833F8E58233F582E583332F
:102CE000F583C3E933F9EA33FAEB33FBEC33FC80C9
:102CF000C4B3E4F938FAE43582FBE43583FCD082CE
:0C2D0000500405827C80121A98022BF807
:102D0C0020F71430F6148883A88220F507E6A883F0
:102D1C0075830022E280F7E49322E022E4AC82FB8C
:102D2C00FAF97486022EB7C040858140AE82E583E5
:102D3C00FF33E433FD6009C3E49EFBE49FFC800495
:102D4C008E038F04E54024FCF808E630E70FE540DD
:102D5C0024FCF8C3E496FE08E496FF800AE54024C0
:102D6C00FCF88606088607C005C006C0078B828C57
:102D7C0083122DA1AE82AF8315811581D005ED6034
:102D8C000DC3E49EFCE49FFD8C828D8380048E82B7
:102D9C008F83D04022C040858140AE82AF837D00BE
:102DAC007C00E54024FCF808E6235401FB702FE579
:102DBC004024FCF8E626F608E633F6E54024FCF859
:102DCC00C3EE96EF08965011E54024FCF808E6187F
:102DDC00C313C613C608F680050C8C0580C4E540E9
:102DEC0024FCF8C3EE96EF0896400DE54024FCF861
:102DFC00EEC396FEEF0896FFE54024FCF808E618B3
:102E0C00C313C613C608F68D041DEC70D18E828FC9
:042E1C0083D04022FD
:102E20009001F4E0FF7E000FBF00010E7410C0E0BF
:102E3000E4C0E08F828E83122D33AE82158115811E
:102E40009001F5E0FFEEB50701229001F4E0246C5B
:102E5000F582E43401F583E599F09001F4EEF02277
:102E600030064A9001F6E0FF9001F7E0FEEFB5066C
:102E700005A206C206229001F7E0247CF582E43424
:102E800001F583E0F5999001F7E0FF7E000FBF00A8
:102E9000010E7410C0E0E4C0E08F828E83122D33E7
:0E2EA000AE82AF83158115819001F7EEF0220E
:102EAE00FCABF0AA83A982749EC2D1F582121A9845
:032EBE00022BE004
:102EC1009001F8E0FF7E000FBF00010E7410C0E01A
:102ED100E4C0E08F828E83122D33AE82158115817D
:102EE1009001F9E0FFEEB50701229001F8E0248C92
:102EF100F582E43401F583E5C1F09001F8EEF022AA
:102F010030074A9001FAE0FF9001FBE0FEEFB506C1
:102F110005A207C207229001FBE0249CF582E4345C
:102F210001F583E0F5C19001FBE0FF7E000FBF00DA
:102F3100010E7410C0E0E4C0E08F828E83122D3345
:0E2F4100AE82AF83158115819001FBEEF02268
:102F4F006040F82582500274FFF582E824F8501E85
:102F5F00CCCBCAF9E4CC24F85014CBCAF9E4CB2477
:102F6F00F8500BCAF9E4CA24F85003790022240858
:102F7F006010F8C3EC13FCEB13FBEA13FAE913F937
:072F8F00D8F1227582002237
:102F960030303030002D4F46460056302D3300304D
:102FA600303031000D0A0040572D52535423004053
:0F2FB600542D454E44230040502D2D4F4E2300E7
:102FC50000000000000000000000000000000001FB
:102FD50000000000000000000000000000000304E5
:102FE50000000200000000000101010101010101D2
:102FF50000000202020202020202000003030303B0
:10300500030303030000040404040404040400008F
:10301500010204081020408000000102040810206D
:1030250040800000010204081020408000000102D9
:103035000408102040800000FFFFFFFFFFFFFFFF97
:10304500FFFFFF00FFFF0102FFFFFFFFFFFFFFFF85
:10305500FFFFFFFFFFFFFFFF03FFFFFFFFFFFFFF77
:1030650012011001EF020108091250C50101010208
:103075000301090246000201008064080B000202F8
:1030850002010409040000010202010405240010E4
:103095000104240202052406000107058103080036
:1030A5004009040100020A0000040705020240006D
:1030B5000007058202400000040309040C034300D5
:1030C50048003500350078001603430048003500F8
:1030D500350078006400750069006E006F00160306
:1030E500430044004300200053006500720069005E
:1030F50061006C000E0344006500710069006E00FC
:02310500670061
:10310700211800000000000000000000030000007C
:1031170000000000000000000000000000000000A8
:103127000000000000000000000000000000000098
:073137000000000000000091
:04313E0035153515F9
:0231420000008B
:0B31440000E100000000080000000097
:04314F00000000007C
:043153000000000078
:00000001FF
